:020000040800F2
:1000000018C8002031020008E5330008E733000873
:1000100011340008153400081934000800000000ED
:100020000000000000000000000000001D34000877
:100030001F340008000000009B78030823340008E8
:100040004B0200084B0200084B020008ED26030893
:100050004B0200084B0200084B0200084B0200084C
:100060004B0200084B0200084B0200084B0200083C
:100070004B0200084B0200084B0200084B0200082C
:100080004B0200084B0200084B0200084B0200081C
:100090004B0200084B0200084B02000833340008F2
:1000A0004B0200084B0200084B0200084B020008FC
:1000B000B3270308D33E03082F0604084B020008A9
:1000C0004B0200084B0200084B0200084B020008DC
:1000D0004B02000817050408E93400084B02000829
:1000E000693400084B0200084B0200084B0200086C
:1000F0004B0200084B0200084B0200084B020008AC
:100100004B0200084B0200080F4503084B02000891
:100110004B02000845130408171504084B02000899
:100120004B0200084B0200084B0200084B0200087B
:1001300000F002F800F06DF80AA090E8000C82448C
:100140008344AAF10107DA4501D100F062F8AFF269
:10015000090EBAE80F0013F0010F18BFFB1A43F0A5
:1001600001031847E8AD050008AE05000A444FF04A
:10017000000C10F8013B13F0070408BF10F8014B06
:100180001D1108BF10F8015B641E05D010F8016B4B
:10019000641E01F8016BF9D113F0080F1EBF10F8AF
:1001A000014BAD1C0C1B09D16D1E58BF01F801CBD2
:1001B000FAD505E014F8016B01F8016B6D1EF9D555
:1001C0009142D6D37047000000230024002500266A
:1001D000103A28BF78C1FBD8520728BF30C148BFAA
:1001E0000B607047642905F0CFA0732905F01BA5AB
:1001F000002070471FB548F082FC45F0BDFD0400AB
:100200000020002147F058FB401C60601FBD10B566
:1002100010BD45F0C3FD1146FFF7ECFF03F0A2F857
:1002200045F0E1FD03B4FFF7F2FF03BC45F0E6FD46
:100230000948804709480047FEE7FEE7FEE7FEE77A
:10024000FEE7FEE7FEE7FEE7FEE7FEE704480549B6
:10025000034A054B704700003503000831010008D0
:1002600018C4002018C8002018C400200021002055
:10027000674A126842F48032654B1A6000BF644AD4
:10028000126802F40030491C10B9B1F5A06FF6D124
:100290005F4A126812F4003F01D0012000E0002004
:1002A000012842D15B4A126842F01002594B1A6091
:1002B0001A46126822F003021A601A46126842F0C7
:1002C00002021A60524A5268514B5A601A465268EA
:1002D0005A601A46526842F480625A601A4652685E
:1002E00022F47C125A601A46526842F4E8125A60AC
:1002F0001A46126842F080721A6000BF444A1268BF
:1003000012F0007FFAD0424A526822F00302404BBA
:100310005A601A46526842F002025A6000BF3C4AD4
:10032000526802F00C02082AF9D1704710B5FFF7A5
:100330009DFF10BD10B53648006840F001003449FB
:10034000086008464068344908403149486008461A
:100350000068324908402E4908600846006820F4C9
:10036000802008600846406820F4FE0048604FF492
:100370001F008860FFF7DAFF4FF00060284908602F
:1003800010BD10B5002100200022214B5B6803F056
:100390000C0121B1042906D0082928D107E0214BFE
:1003A000214C236027E01F4B1F4C236023E0184B98
:1003B0005B6803F47010164B5B6803F48032022311
:1003C00003EB904022B9194B4343174C23600DE0D7
:1003D0000F4B5B6813F4003F04D0144B4343124CA3
:1003E000236003E00F4B43430F4C236003E00D4BAE
:1003F0000D4C236000BF00BF054B5B68C3F30313C4
:100400000B4CE15C084B1B68CB40074C236010BDD4
:1004100000100240002002400000FFF8FFFFF6FE3F
:1004200008ED00E000127A000000002000093D0005
:100430000400002031490143314A1160704770B512
:10044000002100230F22C4780CB32D4C246804F43F
:10045000E064C4F5E064210AC1F10403CA404478B1
:1004600004FA03F18478144021430901254C0678ED
:10047000A155047804F01F050124AC4005786D11E6
:100480004FF0E02606EB8505C5F8004109E0047849
:1004900004F01F050124AC401B4D0678761145F889
:1004A000264070BD194A0A400243154B1B1F1A60B3
:1004B000704739B1124A121D12680243104B1B1DBE
:1004C0001A6006E00E4A121D126882430C4B1B1D77
:1004D0001A607047042808D14FF0E021096941F003
:1004E00004014FF0E022116107E04FF0E0210969BB
:1004F00021F004014FF0E022116170470000FA057D
:100500000CED00E000E400E080E100E080FFFF1F70
:1005100010B50446F948844208D10121401501F084
:100520004DFD0021601501F049FD17E0F4488442BB
:1005300008D10121001501F041FD0021201501F035
:100540003DFD0BE0EF48844208D10121C80301F0D2
:1005500035FD00214FF4004001F030FD10BD30B5F5
:100560000246002000235068E74C20400D790C68BB
:1005700044EA0524204350609068E44C2040D1E9CF
:1005800002542C434D7944EA450420439060D06ADC
:1005900020F470000C7C641EE4B2234340EA035054
:1005A000D06230BD00210160017141718160C16084
:1005B00001210174704721B1826842F0010282601A
:1005C00003E0826822F001028260704721B18268F4
:1005D00042F48072826003E0826822F4807282605A
:1005E000704710B50023CBB21AB144681C43446075
:1005F00002E044689C43446010BD816841F00801FA
:1006000081607047014600208A6812F0080F01D00F
:10061000012000E000207047816841F00401816002
:100620007047014600208A6812F0040F01D00120B3
:1006300000E00020704721B1826842F4A00282608D
:1006400003E0826822F4A002826070470146002025
:100650008A6812F4800F01D0012000E0002070476A
:1006600010B50A4600210023416821F46041531E61
:1006700041EA4331416010BD21B1426842F4006259
:10068000426003E0426822F4006242607047F0B5C5
:1006900004460D4600200021092D11DDE068A5F17A
:1006A0000A0606EB4607072606FA07F18843A5F176
:1006B0000A0606EB460603FA06F10843E0600CE082
:1006C000206905EB4507072606FA07F1884305EB85
:1006D000450603FA06F108432061072A0FDA606B2A
:1006E000561E06EB86071F2606FA07F18843561E9C
:1006F00006EB860605FA06F10843606322E00D2A40
:100700000FDA206BD61F06EB86071F2606FA07F1C5
:100710008843D61F06EB860605FA06F108432063D8
:1007200010E0E06AA2F10D0606EB86071F2606FA26
:1007300007F18843A2F10D0606EB860605FA06F1DD
:100740000843E062F0BD21B1826842F48012826009
:1007500003E0826822F48012826070470146C86C10
:1007600080B2704765484C300068704721B14268DC
:1007700042F48062426003E0426822F48062426098
:10078000704721B1426842F48052426003E04268FF
:1007900022F48052426070470A460021816821F4A9
:1007A000E04111438160704721B1826842F4004208
:1007B000826003E0826822F400428260704721B1C7
:1007C000826842F40212826003E0826822F402121C
:1007D00082607047014600208A6812F4001F01D031
:1007E000012000E000207047F0B5044615460020C7
:1007F00000220026092911DDE068A1F10A0707EBB4
:10080000470C072707FA0CF29043A1F10A0707EB00
:10081000470703FA07F21043E0600CE0206901EBA0
:10082000410C072707FA0CF2904301EB410703FA4A
:1008300007F210432061A06BC0F30156EF1C06F1D4
:10084000010CA7EB0C0707EB870C1F2707FA0CF22C
:100850009043EF1C06F1010CA7EB0C0707EB870791
:1008600001FA07F21043A063F0BD10B50A4600215B
:100870000023816B21F44011531E41EA035181632F
:1008800010BD10B5002303460B441A6010BD02468C
:100890000023134601F128000344186880B2704712
:1008A0000A46002141681A4B1940114341607047C4
:1008B0004162826270470A460021416821F01F01AF
:1008C00011434160704740B10C490831096841F457
:1008D00000010A4A0832116007E008490831096836
:1008E00021F40001054A08321160704702460020D9
:1008F00013680B420ED001200DE0000000240140DF
:1009000000280140003C0140FFFEF0FFFDF7F1FF31
:10091000FFFD3FFF00207047CA430260704770B57B
:1009200002460020002300240B125568CEB205EACF
:10093000060415681D4202D00CB1012000E0002021
:1009400070BD00220A12D3430360704710B5012026
:1009500001F04EFB002001F04BFB10BD2449086064
:1009600070472349091F0860704721498431086096
:100970007047014600201F4A10884FF67F42104002
:1009800008431C4A1080704701460020194A10880D
:100990004FF6807210400843164A108070470022BC
:1009A000144A2C3A02441160704701460022114A51
:1009B0002C3A0A44108870470D489C300068C0B239
:1009C00070470C480830008840F0010009490831A0
:1009D000088070470648A0300068C0B270470548DC
:1009E0000830008840F00200024908310880704752
:1009F00004860D422C6C004001201049886070472D
:100A000001460E4801600068704710B502460B466B
:100A1000002100BF04E052F82100084C2060491C6E
:100A20009942F8D30548006810BD04480068704733
:100A30000249087170470148007970470030024050
:100A400010B50121480701F0C6FA00214FF000500F
:100A500001F0C1FA10BD30B500220023514C2268CC
:100A600040F6FE748440A243D1E900452C438D68D2
:100A70002C43CD6844EA050303FA00F42243494CB1
:100A8000226030BD0021016041608160C16070471B
:100A900039B1444A1268012383401A43414B1A601A
:100AA00006E0404A1268012383409A433D4B1A6096
:100AB000704741B13B4A12684FF4805383401A4358
:100AC000384B1A6007E0374A12684FF4805383406E
:100AD0009A43344B1A60704710B551B1314A121D18
:100AE000126804090123A3401A432E4B1B1D1A60F0
:100AF00009E02C4A121D126804090123A3409A43FD
:100B0000284B1B1D1A6010BD40B12649091D0968FC
:100B100041F00301234A121D116007E02149091D1C
:100B2000096821F003011F4A121D1160704710B5BA
:100B30003AB11C4B1B6801FA00F42343194C2360A3
:100B400006E0184B1B6801FA00F4A343154C236020
:100B500010BD0022134A00F108031A4411607047C7
:100B60000022104A00F114031A441160704730B596
:100B700000240023082802D142EA012401E042EACD
:100B80000144084B00F120052B441C6030BD014698
:100B90000022044A2C2000EB91000244106880B22D
:100BA0007047000000740040002044490860091D9F
:100BB0000860091D0860091D086041483F4914315B
:100BC0000860704700213D498279002A3AD00A46E0
:100BD000126803689A430B461A600A1D126803687C
:100BE0009A430B1D1A60027911440A6803681A437C
:100BF0000A60324A0832126803689A432F4B08335E
:100C00001A601A1D126803689A432C4B0C331A6041
:100C10004279102A0ED11A1F126803681A43274B13
:100C200008331A601A1D126803681A43234B0C33E9
:100C30001A600DE02149427911440A6803681A4399
:100C40000A6005E0027911440A6803689A430A6061
:100C500070470021016001710C21417100218171F7
:100C600070471649103109680143144A1032116067
:100C7000704701460020114A143212680A4201D01E
:100C8000012000E0002070470C49143108607047D3
:100C9000014600200022094B1B6803EA0102074BB2
:100CA00014331B680B4202D00AB1012000E000207F
:100CB0007047024914310860704700000004014089
:100CC000FFFF0F0001460020FE4A106800F03800C8
:100CD000084310607047FB49096821F00801F94A90
:100CE000116011460968014311607047F5490968B0
:100CF00021F01001F34A11601146096801431160A7
:100D00007047F148EF494860F04848607047EE4846
:100D1000EC494860ED4848607047EA48006940F097
:100D20008000E84908617047E648006940F08000AB
:100D3000E449086170470420E249C96801F00101F3
:100D4000012901D101200EE0DE49C96811F0040F2C
:100D500001D0022007E0DB49C96811F0100F01D073
:100D6000032000E00420704700B502460423FFF78B
:100D7000E2FF034603E0FFF7DEFF0346521E012BAE
:100D800001D1002AF7D102B90523184600BD30B5BC
:100D9000044604254FF43020FFF7E6FF0546042DF6
:100DA00017D1C848006940F00200C64908610846EA
:100DB0004461006940F0400008614FF43020FFF7C3
:100DC000D3FF0546BF48006941F6FD710840BD49A3
:100DD0000861284630BD10B504244FF43020FFF7D9
:100DE000C3FF0446042C16D1B648006940F0040045
:100DF000B44908610846006940F0400008614FF4BA
:100E00003020FFF7B1FF0446AE48006941F6FB71A0
:100E10000840AC490861204610BD00B502460423D5
:100E2000FFF789FF034603E0FFF785FF0346521EE5
:100E3000012B01D1002AF7D102B90523184600BDC4
:100E400010B504244FF43020FFF7E7FF0446042CCC
:100E500016D19C48006940F004009A490861084690
:100E6000006940F0400008614FF43020FFF7D5FFE3
:100E700004469448006941F6FB71084091490861B5
:100E8000204610BD00208F49C96911F0020F01D022
:100E9000012000E00020704730B5A5250424FFF7AD
:100EA000F1FF00B100254FF43020FFF75DFF04464D
:100EB000042C3AD184488349886084488860084675
:100EC000006940F0200008610846006940F04000D9
:100ED00008614FF43020FFF747FF0446042C1BD174
:100EE0007848006941F6DF71084076490861084694
:100EF000006940F01000086175480580E002FFF7C6
:100F000033FF0446052C10D06E48006941F6EF719E
:100F100008406C49086108E0052C06D06948006962
:100F200041F6EF71084067490861204630BDF0B5D1
:100F300004460D4604260027F002FFF715FF06467B
:100F4000042E22D15F48006940F001005D4908612C
:100F50002580F002FFF708FF0646042E0ED1A71CDD
:100F6000280C3880F002FFF7FFFE0646554800695E
:100F700041F6FE7108405349086106E05148006996
:100F800041F6FE7108404F4908613046F0BD70B52A
:100F900004460D460426F002FFF7E6FE0646042E40
:100FA00011D14848006940F0010046490861258098
:100FB000F002FFF7D9FE06464248006941F6FE718D
:100FC000084040490861304670BD70B505460E4680
:100FD0000424E002FFF7C8FE0446042C17D13A4867
:100FE00038498860394888600846006940F0100038
:100FF00008612E80E002FFF7B7FE0446052C06D0FC
:101000003048006941F6EF7108402E4908612046DA
:1010100070BD2DE9F04304464FF6FF763746B046E3
:10102000B1460425E443E6B2C4F30727C4F30748F6
:101030004FEA1469E802FFF797FE0546042D40D1F8
:10104000214820498860214888600846006940F0AE
:1010500010000861FF2E06D01D4808300680E80207
:10106000FFF782FE0546042D08D1FF2F06D0184851
:101070000A300780E802FFF777FE0546042D0AD103
:10108000B8F1FF0F07D012480C30A0F80080E8023A
:10109000FFF76AFE0546042D0AD1B9F1FF0F07D00C
:1010A0000B480E30A0F80090E802FFF75DFE054601
:1010B000052D06D00348006941F6EF71084001494B
:1010C000086107E00020024023016745AB89EFCDAE
:1010D00000F8FF1F2846BDE8F08330B5054604241C
:1010E0004FF43020FFF740FE0446042C41D15F4806
:1010F0005F4988605F4888600846006940F02000CA
:1011000008610846006940F0400008614FF4302053
:10111000FFF72AFE0446042C22D15548006941F607
:10112000DF710840524908610846006940F010002C
:1011300008611DB100205049088002E0A5204E49F9
:1011400008804FF43020FFF70FFE0446052C10D026
:101150004748006941F6EF7108404549086108E0D9
:10116000052C06D04248006941F6DF71084040492D
:101170000861204630BDF0B505460E4617460424EA
:101180003A483B4988603B488860E002FFF7ECFD45
:101190000446042C19D13648006940F01000344947
:1011A000086147F0F800304328433349891C088020
:1011B000E002FFF7D9FD0446052C06D02C48006953
:1011C00041F6EF7108402A4908612046F0BD2848E1
:1011D000C069800870472648006A7047002024498B
:1011E000096811F0200F01D0012000E000207047B5
:1011F00029B11F4A126902431D4B1A6104E01C4ABF
:10120000126982431A4B1A61704701460020012976
:1012100008D1174AD26912F0010F01D0012008E06D
:10122000002006E0124AD2680A4201D0012000E004
:10123000002070470E49C860704704200C49C968F7
:1012400001F00101012901D101200EE00849C9681E
:1012500011F0040F01D0022007E00549C96811F020
:10126000100F01D0032000E00420704723016745E0
:1012700000200240AB89EFCD00F8FF1F30B943F2E8
:10128000DB014FF0204242F8201005E043F2D2018A
:101290004FF0204242F820106FF07042411C4FF096
:1012A000204343F8212011461A4602EB8002C2F87F
:1012B0000411704710280AD118214FF020421166FE
:1012C000402151664FF0FC319166D16610E0182143
:1012D000F84A11604FF040014FF02042C2F88410EC
:1012E0004FF0FC31F44A11604FF02042C2F88C10EC
:1012F00070471820F14908604FF000004FF020417E
:10130000C1F8A4004FF0FC30ED49086001F1040180
:10131000086001F1040108607047D0E9011211432F
:10132000C268114302691143426911438269114342
:10133000C2691143026A1143426A1143826A11432E
:10134000C26A1143026B11434FF02043026843F815
:1013500022108168082908D11A46016852F8211024
:1013600041F04001026843F82210416B0968426B6A
:10137000526841EA0211426B926841EA0221426BD3
:10138000D26841EA0241426B126941EA0251426B62
:10139000526941EA0261426B926911430268521C30
:1013A0004FF0204343F82210C16AB1F5804F1AD1A3
:1013B000816B0968826B526841EA0211826B926804
:1013C00041EA0221826B126941EA0251826B526941
:1013D00041EA0261826B92691143026803EB820267
:1013E000C2F8041108E06FF070414FF0204302682A
:1013F00003EB8202C2F80411704730B500210022CD
:101400000023446844F0080485682C43C5682C43D5
:1014100005692C43456944EA4524856944EA453118
:10142000C4692468C5696D6844EA0524C569AD6866
:1014300044EA0544C569ED6844EA0562046A246823
:10144000056A6D6844EA0524056AAD6844EA054406
:10145000056AED6844EA05630468102C05D14FF075
:1014600020442166A266E36607E0924C21604FF0BB
:101470002044C4F88820934C236030BD016841F0BB
:101480001001426841EA4221826841EA42318B4AB6
:101490001160C1680968C268526841EA0221C268E5
:1014A000926841EA0241C268D26841EA0261844A14
:1014B0001160016909680269526841EA0221026902
:1014C000926841EA02410269D26841EA02617E4AB9
:1014D0001160416909684269526841EA0221426922
:1014E000926841EA02414269D26841EA02614FF0E2
:1014F0002042C2F8B0107047002101600221416013
:1015000000218160C160016141618161C16101624D
:101510004FF480514162490081620021C162016340
:101520000F21426B1160426B5160FF21426B916051
:101530000F21426BD160426B1161426B51610021FE
:10154000426B91610F21826B1160826B5160FF21B0
:10155000826B91600F21826BD160826B1161826B13
:1015600051610021826B916170471021016000215F
:1015700041608160C160016141618161FC21C2699A
:101580001160C2695160C2699160C269D160026A2A
:101590001160026A5160026A9160026AD16070470C
:1015A0000021016041608160FC21C2681160C26855
:1015B0005160C2689160C268D160026911600269BD
:1015C0005160026991600269D160426911604269AB
:1015D0005160426991604269D160704751B14FF0EA
:1015E000204252F8202042F001024FF0204343F8FD
:1015F000202009E04FF0204252F82020334B1A40BF
:101600004FF0204343F82020704799B1102808D1AB
:101610004FF02042126E42F004024FF020431A664F
:101620001DE0244A126842F004024FF02043C3F840
:10163000802014E0102809D14FF02042126E234B75
:10164000DB1E1A404FF020431A6608E0194A126860
:101650001F4B02EA03024FF02043C3F8802070477B
:1016600040B11649096841F004014FF02042C2F828
:10167000A01008E011490968154A01EA02014FF07B
:101680002042C2F8A010704799B1102808D14FF03D
:101690002042126E42F040024FF020431A662DE0C5
:1016A000044A126842F040024FF02043C3F8802001
:1016B00024E00FE0800000A0880000A0A00000A0AF
:1016C000A80000A08C0000A0AC0000A0FEFF0F004E
:1016D000FBFF0F00102808D14FF02042126E684B1C
:1016E0001A404FF020431A6608E0664A1268644BBD
:1016F00002EA03024FF02043C3F8802070470146FE
:101700000020102903D14FF02042506F01E05E4AC3
:101710001068704710B5F2B1102807D14FF0204380
:101720005B6E0B434FF02044636632E0B0F5807F80
:1017300008D1564B1B6843EA01034FF02044C4F81C
:10174000843026E0524B1B6843EA01034FF02044EB
:10175000C4F8A4301DE0102807D14FF020435B6E81
:101760008B434FF02044636613E0B0F5807F08D1CF
:10177000464B1B6823EA01034FF02044C4F8843031
:1017800007E0434B1B6823EA01034FF02044C4F8F1
:10179000A43010BD10B5024600200023102A03D14A
:1017A0004FF02044636E07E0B2F5807F02D1374CE2
:1017B000236801E0364C23680B4201D0012000E091
:1017C000002010BD102807D14FF02042526E8A43EE
:1017D0004FF020435A6613E0B0F5807F08D12B4AC2
:1017E000126822EA01024FF02043C3F8842007E088
:1017F000274A126822EA01024FF02043C3F8A420CE
:10180000704770B502460020002300240025102AEE
:1018100003D14FF02046736E07E0B2F5807F02D10E
:101820001A4E336801E01A4E336803EA010403EAF2
:10183000D10514B10DB1012000E0002070BD1028C9
:1018400008D14FF02042526E22EAD1024FF02043DD
:101850005A6613E0B0F5807F08D10C4A126822EA7C
:10186000D1024FF02043C3F8842007E0084A1268F1
:1018700022EAD1024FF02043C3F8A42070470000B1
:10188000BFFF0F00800000A0940000A0840000A013
:10189000A40000A010B50446CA48844208D1012122
:1018A000042000F08BFB0021042000F087FB46E0C1
:1018B000C548844208D10121082000F07FFB0021A7
:1018C000082000F07BFB3AE0C048844208D10121A7
:1018D000102000F073FB0021102000F06FFB2EE0C1
:1018E000BB48844208D10121202000F067FB002181
:1018F000202000F063FB22E0B648844208D1012199
:10190000402000F05BFB0021402000F057FB16E078
:10191000B148844208D10121802000F04FFB002112
:10192000802000F04BFB0AE0AC48844207D1012143
:10193000801500F043FB0021A01500F03FFB10BD17
:1019400010B50121084600F039FB0021012000F00C
:1019500035FB10BD2DE9F041024600250026002090
:1019600000230024002791F803C00CF00F0591F824
:1019700003C01CF0100F03D091F802C04CEA05051B
:10198000B1F800C01CF0FF0F31D0146800202BE02C
:101990004FF0010C0CFA00F3B1F800C00CEA03069A
:1019A0009E4220D183004FF00F0C0CFA03F7BC438A
:1019B00005FA03FC4CEA040491F803C0BCF1280FBB
:1019C00006D14FF0010C0CFA00FCC2F814C00AE07A
:1019D00091F803C0BCF1480F05D14FF0010C0CFA8F
:1019E00000FCC2F810C0401C0828D1D31460B1F824
:1019F00000C0BCF1FF0F34DD546800202EE000F180
:101A0000080C4FF0010808FA0CF3B1F800C00CEA1A
:101A100003069E4221D183004FF00F0C0CFA03F70E
:101A2000BC4305FA03FC4CEA040491F803C0BCF182
:101A3000280F05D100F1080C08FA0CF8C2F8148040
:101A400091F803C0BCF1480F07D100F1080C4FF02A
:101A5000010808FA0CF8C2F81080401C0828CED300
:101A60005460BDE8F0814FF6FF7101800221817062
:101A70000421C17070470246002093680B4201D0D8
:101A8000012000E0002070470146886880B270475E
:101A900002460020D3680B4201D0012000E0002064
:101AA00070470146C86880B2704701617047416164
:101AB00070470AB1016100E041617047C160704741
:101AC0004FF480320A438261816182618269826956
:101AD000704702460020424B18684FF6807318404A
:101AE00040EA021008433E4B186070473D49C86108
:101AF0007047F0B50A46002300240021002500F0BD
:101B00000046B6F1004F02D1354EF16901E0344E86
:101B10007168C0F3034583B200F44016B6F5401F68
:101B200008D121F070612E4E766826F070662C4F39
:101B30007E6012E000F48016B6F5801F06D1032601
:101B400006FA05F4A14341F0706106E0460D360146
:101B500003FA06F6B14341F0706122B1460D360139
:101B600003FA06F6314300F00046B6F1004F02D109
:101B70001B4EF16101E01A4E7160F0BD30B50022DC
:101B80008B071C0F0F2303FA04F2154B08338C103C
:101B900053F824309343124C08348D1044F8253008
:101BA00023468C1053F824308C07240F00FA04F4D9
:101BB00023430B4C08348D1044F8253030BD0A49BE
:101BC0000860704700080140000C0140001001400F
:101BD0000014014000180140001C01400020014099
:101BE0000000014000002042DC00204210B501212D
:101BF000080700F0F0F900214FF0805000F0EBF9F9
:101C000010BD29490862704727490861704701469D
:101C10000020264A106820F0E0000843106070475A
:101C200023490860704710B5024600201F4B186812
:101C300020F00300104318601E4B1B6843F00403A0
:101C40001C4C2360012901D130BF00E020BF194B9B
:101C50001B6823F00403174C236010BD1348006871
:101C600040F00400114908600846006840F0020096
:101C700008601048006840F004000E49086000BF8A
:101C800000BF30BF704701460020084A52680A4230
:101C900001D0012000E0002070470449096841EAB2
:101CA0008001024A1160704700000E42007000403F
:101CB000A0000E4210ED00E0DC48006840F001009A
:101CC000DA49086008464068D9490840D749486061
:101CD00008460068D7490840D449086008460068AB
:101CE00020F4802008600846406820F4FE00486028
:101CF0004FF41F0088607047CC49096821F4803197
:101D0000CA4A11601146096821F480211160B0F5BA
:101D1000803F03D0B0F5802F0ED106E0C34909689B
:101D200041F48031C14A116007E0C049096841F4BB
:101D3000A021BE4A116000E000BF00BF704710B58F
:101D400001460022002300204A11012A02D1B74C8B
:101D5000236806E0022A02D1B44C236A01E0B34CA6
:101D6000636A01F01F02012494401C4201D001204B
:101D700000E0002010BD70B500240025002600BF43
:101D80003120FFF7DCFF0646641CB4F5A06F01D0DC
:101D9000002EF5D03120FFF7D2FF08B1012500E079
:101DA0000025284670BD01460020A04A106820F09A
:101DB000F80040EAC100106070479F490860704712
:101DC00002460020994B586820F47C1042EA010337
:101DD0001843964B5860704797490866704701460C
:101DE0000020924A506820F003000843506070477A
:101DF0008E48406800F00C007047014600208B4A76
:101E0000506820F0F0000843506070470146002001
:101E1000864A506820F4E0600843506070470146ED
:101E20000020824A506820F4605040EAC1005060AF
:101E3000704729B17D4A527A02437C4B5A7206E0C0
:101E40007A4A527AC343DBB21A40784B5A727047CF
:101E50007A490860704701460020744A506820F4AF
:101E600040400843506070470021754A11706F4A26
:101E700082F82010012802D0042808D103E00121B3
:101E80006F4A117004E005216D4A117000E000BF37
:101E900000BF70476B49086070476449096A014395
:101EA000624A11627047674944390860704730B52B
:101EB00000210022002400235C4D6D6805F00C0118
:101EC00021B1042905D0082923D105E05E4D056024
:101ED00022E05D4D05601FE0544D6D6805F4701201
:101EE000524D6D6805F48034022505EB92421CB911
:101EF000564D554305600BE04C4D6D6815F4003FA1
:101F000003D0524D5543056002E04F4D55430560E7
:101F100002E04D4D056000BF00BF444D6D6805F007
:101F2000F00109094A4D6B5C0568DD4045603F4D95
:101F30006D6805F4E061090A454D6B5C4568DD405C
:101F400085603A4D6D6805F46051C90A404D6B5C7F
:101F50004568DD40C560354D6D6805F44041890B2D
:101F60003C4D6B5CC568B5FBF3F5056130BD29B12F
:101F70002E4A526902432D4B5A6104E02B4A5269A2
:101F800082432A4B5A61704729B1284A9269024319
:101F9000264B9A6104E0254A92698243234B9A6159
:101FA000704729B1214AD2690243204BDA6104E02B
:101FB0001E4AD26982431D4BDA61704729B11B4A20
:101FC000D2680243194BDA6004E0184AD2688243AF
:101FD000164BDA60704729B1144A12690243134B59
:101FE0001A6104E0114A12698243104B1A6170476A
:101FF00014494039086070470F49C86470470B495D
:10200000C87170470948406A40F0807007494862CB
:10201000704701460020054A92680A4201D001201B
:1020200000E00020704701498872704700100240AC
:102030000000FFF8FFFFF6FE00004242D8004242D7
:10204000201002408004424200127A0000093D0044
:10205000140000202400002029B1524A12880243B3
:10206000504B1A8006E04F4A1288C3439BB21A4075
:102070004C4B1A8070474B48001D008840F0100000
:102080004849091D088070474648001D00884FF6E2
:10209000EF7108404349091D0880704700214148FD
:1020A0001C300188001F008841EA0040704700B5DD
:1020B0000246FFF7E0FF100C3A4918310880091D6D
:1020C0000A80FFF7E1FF00BD00B50246FFF7D3FF2E
:1020D000C2F30340334908310880091D0A80FFF725
:1020E000D3FF00BD00B50246FFF7C5FF100C2D4918
:1020F00020310880091D0A80FFF7C6FF00BD0020BF
:102100002849103109880907080B26491431098824
:102110000843704700BF2348001D008810F0200FBF
:10212000F9D070471F48001D00884FF6F77108402E
:102130001C49091D088000BF1A48001D008810F0C6
:10214000080FF9D0704701460020164A121D128868
:102150000A4201D0012000E0002070471149091D0A
:102160000988C24392B211400E4A121D1180704775
:10217000014600200B4A121D12880A40D0B2094ABB
:1021800012880A4202D008B1012000E00020704706
:102190000449091D0988C24392B21140014A121D27
:1021A000118070470028004010B50446FE48844264
:1021B00008D10121C014FFF701FF0021E014FFF74F
:1021C000FDFEC4E0B4F1804F08D101210846FFF7BD
:1021D00002FF00210120FFF7FEFEB8E0F348844231
:1021E00008D101210220FFF7F6FE00210220FFF7AF
:1021F000F2FEACE0EE48844208D101210420FFF752
:10220000EAFE00210420FFF7E6FEA0E0E948844250
:1022100008D101210820FFF7DEFE00210820FFF78A
:10222000DAFE94E0E448844208D101211020FFF74F
:10223000D2FE00211020FFF7CEFE88E0DF48844266
:1022400008D101212020FFF7C6FE00212020FFF742
:10225000C2FE7CE0DA48844208D101214014FFF735
:10226000ADFE00216014FFF7A9FE70E0D54884425E
:1022700009D10121C804FFF7A1FE00214FF400207D
:10228000FFF79CFE63E0D048844209D10121080594
:10229000FFF794FE00214FF48010FFF78FFE56E009
:1022A000CA48844209D101214805FFF787FE002171
:1022B0004FF40010FFF782FE49E0C548844208D180
:1022C00001214020FFF787FE00214020FFF783FE19
:1022D0003DE0C048844208D101218020FFF77BFE09
:1022E00000218020FFF777FE31E0BB48844208D10F
:1022F00001218015FFF76FFE0021A015FFF76BFE8F
:1023000025E0B648844209D101210804FFF756FEB2
:1023100000214FF48030FFF751FE18E0B0488442AE
:1023200009D101214804FFF749FE00214FF4003094
:10233000FFF744FE0BE0AB48844208D1012188043A
:10234000FFF73CFE00214FF48020FFF737FE10BD61
:1023500000220288944B98420ED0994B98420BD0A1
:10236000B0F1804F08D0914B984205D0904B9842E5
:1023700002D0904B984204D14FF68F731A404B888D
:102380001A438D4B984207D08C4B984204D04FF69D
:10239000FF431A40CB881A4302808B8883850B88C1
:1023A0000385814B98420BD0854B984208D08B4BCC
:1023B000984205D08A4B984202D08A4B984201D16C
:1023C0000B7A038601238382704770B500240022B4
:1023D0000023058C4FF6FE7635400584028C8388F9
:1023E000048B4FF68F752C40B51E2C400D882C4366
:1023F000751E2A400D892A434D882A436A4DA842FA
:102400000BD06F4DA84208D0744DA84205D0744D32
:10241000A84202D0734DA84213D14FF6F7752A4057
:102420004D892A434FF6FB752A408D882A434FF683
:10243000FF652B404FF6FF552B408D892B43CD89EF
:102440002B4383800483CD888586028470BD70B55C
:10245000002400220023058C4FF6EF7635400584DA
:10246000028C8388048B48F6FF752C404FF6FF459D
:102470002C400D882D0644EA15444FF6DF752A409E
:102480000D892D0542EA15424D882D0542EA154277
:10249000454DA84202D04A4DA8421BD14FF67F7548
:1024A0002A404D892D0542EA15424FF6BF752A4054
:1024B0008D882D0542EA15424FF6FF352B404FF22D
:1024C000FF752B408D89AD0443EA1543CD89AD04DA
:1024D00043EA154383800483CD880587028470BD59
:1024E00070B5002400220023058C4FF6FF663540AE
:1024F0000584028C8388848B4FF68F752C404FF6B1
:10250000FC752C400D882C434FF6FF552A400D8951
:102510002D0642EA15424D882D0642EA1542224D0B
:10252000A84202D0264DA8421BD14FF2FF752A4087
:102530004D892D0642EA15424FF6FF352A408D8817
:102540002D0642EA15424EF6FF752B404DF6FF75FB
:102550002B408D892D0543EA1543CD892D0543EA8E
:10256000154383808483CD888587028470BD70B5D0
:10257000002200230024058C4EF6FF7635400584AA
:10258000038C8488828B48F6FF752A404FF6FF45FE
:102590002A400D882D0642EA15424DF6FF752B4064
:1025A0000D892D0720E00000002C014000040040B0
:1025B00000080040000C00400010004000140040E3
:1025C00000340140004C01400050014000540140E3
:1025D00000180040001C0040002000400040014066
:1025E000004401400048014043EA15434D882D074F
:1025F00043EA1543F84DA84202D0F84DA84206D14F
:102600004BF6FF752C408D89AD0544EA1544848056
:102610008283CD88A0F84050038470BD828B4FF236
:10262000FF331A408283828B0B0642EA1342828375
:102630007047F0B50C461546002200210026078C95
:102640004EF6FF7C07EA0C070784828B018C270774
:102650003E0C40F6FF473A402F0642EA17421F075A
:1026600042EA1742DC4FB8420ED0DC4FB8420BD0E2
:10267000B0F1804F08D0DA4FB84205D0D94FB842F8
:1026800002D0D94FB84206D14DF6FF77394046F413
:102690008057394305E047F6FF57394044F48057E7
:1026A000394382830184F0BD828B4FF6F3731A4065
:1026B0008283828B0A4382837047F0B50C461546AD
:1026C000002200210026078C4FF6FF6C07EA0C075A
:1026D0000784828B018C27063E0C4FF60C773A401C
:1026E0001F0545EA17473A43BB4FB8420ED0BB4FD0
:1026F000B8420BD0B0F1804F08D0B94FB84205D0E6
:10270000B84FB84202D0B84FB84206D14FF6FF5783
:10271000394046F48077394305E04FF2FF5739409E
:1027200044F48077394382830184F0BD028B4FF2F9
:10273000FF331A400283028B0B0642EA13420283E4
:102740007047F0B50C461546002200210026078C84
:102750004FF6EF7C07EA0C070784028B018C2705F4
:102760003E0C40F6FF473A401F0742EA17422F0649
:1027700042EA1742984FB8420ED0984FB8420BD059
:10278000B0F1804F08D0964FB84205D0954FB8426F
:1027900002D0954FB84206D14FF6DF77394046F068
:1027A0001007394305E04FF65F77394044F01007D2
:1027B000394302830184F0BD028B4FF6F3731A4054
:1027C0000283028B0A4302837047F0B50C4615461C
:1027D00000220021068C4FF6FE773E400684028BD5
:1027E000018C4FF60C7632401E0545EA1646324300
:1027F000794EB0420ED0794EB0420BD0B0F1804F3E
:1028000008D0774EB04205D0764EB04202D0764E18
:10281000B04206D14FF6FD76314044F00106314317
:1028200005E04FF6F576314044F00106314302836E
:102830000184F0BD70B505460C46674885420ED050
:10284000664885420BD0B5F1804F08D06448854278
:1028500005D06448854202D06348854200D100E03B
:1028600000BF208850B92389A28861882846FFF7D5
:10287000ACFFE1882846FFF79FFF25E02088042869
:102880000AD12389A28861882846FFF75AFFE18888
:102890002846FFF74BFF17E0208808280AD1238934
:1028A000A28861882846FFF708FFE1882846FFF7DD
:1028B000FBFE09E02389A28861882846FFF7B9FE5C
:1028C000E1882846FFF7AAFE70BD2DE9F0410546D4
:1028D0000C4600260127608808B9022600E0002681
:1028E000A088012801D1022700E001272088A0B993
:1028F0002389A28861882846FFF767FFE188284678
:10290000FFF75AFF23893A4631462846FFF719FF59
:10291000E1882846FFF70AFF13E02389A28861882F
:102920002846FFF70EFFE1882846FFF7FFFE2389C0
:102930003A4631462846FFF748FFE1882846FFF728
:102940003BFFBDE8F0810A884B881A438B881A4305
:10295000CB881A430B891A434B891A438B891A4334
:10296000A0F8442070474FF6FF718180002101805C
:10297000C1804180017270470021018041808180C7
:10298000C180018141818181C18170470021018025
:102990004180012181800021C18001817047002197
:1029A000018041808180C1800181418181817047A6
:1029B00021B1028842F00102028004E002884FF651
:1029C000FE731A400280704781B1B0F8442042F48F
:1029D0000042A0F844200FE0002C014000340140E8
:1029E0000004004000080040000C0040B0F8442003
:1029F000C2F30E02A0F84420704710B51AB18389C3
:102A00000B43838104E08389CC43A4B223408381B8
:102A100010BD8182704741EA0203A0F84830704738
:102A200010B51AB183890B43838104E08389CC43B9
:102A3000A4B22340838110BD01894FF6F872114082
:102A4000018170470A46002101894FF68F731940B2
:102A500011430181704730B504460D462946204692
:102A6000FFF7F0FF208940F00700208130BD2DE9FD
:102A7000F04104460D4616461F46602D06D13B46E2
:102A8000012231462046FFF75CFE05E03B4601226D
:102A900031462046FFF799FE29462046FFF7D2FF30
:102AA000208940F007002081BDE8F08130B50C4658
:102AB00000210189C9B21D0642EA15452543294373
:102AC000018130BD2DE9F04105460E461746984676
:102AD000002443463A4631462846FFF7E7FF2C8953
:102AE0004FF6F870044044F007044FF68F7004402E
:102AF00044F070042C81BDE8F081F0B504460D4629
:102B000016461F463B46324629462046FFF7CEFF73
:102B1000208940F480402081F0BD01858282704789
:102B20000A46002101884FF68F7319401143018036
:102B30007047F0B50C4615461E46002100220023C2
:102B40000189028B038C4FF6F877394021434FF609
:102B5000FC473A4040F201173A434FF6DD773B40DD
:102B6000370545EA17473B43018102830384F0BDE3
:102B70000A460021018B4FF68F73194011430183E0
:102B800070470A460021018B48F6FF73194013066F
:102B900041EA1341018370470A460021818B4FF6B9
:102BA0008F7319401143818370470A460021818B3E
:102BB00048F6FF731940130641EA134181837047B9
:102BC00021B1028842F08002028004E002884FF6C0
:102BD0007F731A400280704721B1828842F004025C
:102BE000828004E082884FF6FB731A40828070472F
:102BF00021B1828842F00802828004E082884FF688
:102C0000F7731A408280704721B1828842F0010236
:102C1000828004E082884FF6FE731A4082807047FB
:102C20000A460021018B4FF6F773194011430183C7
:102C300070470A460021018B4FF2FF7319401306BB
:102C400041EA1341018370470A460021818B4FF608
:102C5000F77319401143818370470A460021818B25
:102C60004FF2FF731940130641EA13418183704705
:102C70000A460021018B4FF6FB7319401143018373
:102C800070470A460021018B4FF6FF3319401306A7
:102C900041EA1341018370470A460021818B4FF6B8
:102CA000FB7319401143818370470A460021818BD1
:102CB0004FF6FF331940130641EA134181837047F1
:102CC0000A460021018B4FF67F731940114301839F
:102CD00070470A460021018BC1F30E01130641EA39
:102CE0001341018370470A460021818B4FF67F73A1
:102CF00019401143818370470A460021818BC1F33B
:102D00000E01130641EA1341818370470A460021F0
:102D1000018C4FF6FD7319401143018470470A4638
:102D20000021018C4FF6F77319401143018470475D
:102D30000A460021018C4FF6DF731940130541EA62
:102D40001341018470470A460021018C4FF67F73BE
:102D50001940130541EA1341018470470A460021D6
:102D6000018C4FF6FF531940130641EA13410184C9
:102D700070470A460021018C4FF2FF731940130679
:102D800041EA1341018470470A460021018C4DF647
:102D9000FF731940130741EA13410184704730B5AE
:102DA000002301248C40A3B2048CDD43ADB22C403F
:102DB0000484048C02FA01F5ADB22C43048430BDC6
:102DC00030B5002304248C40A3B2048CDD43ADB2A3
:102DD0002C400484048C02FA01F5ADB22C43048427
:102DE00030BD70B503460020002418461830012578
:102DF0008D40ACB21D8CE643B6B235401D8409B19E
:102E0000082909D100EB6100056825F0700505600F
:102E10000568154305600CE00D1FADB200EB6500C1
:102E2000056825F4E04505600568160645EA16457F
:102E3000056070BD21B1028842F00202028004E008
:102E400002884FF6FD731A400280704721B1028854
:102E500042F00402028004E002884FF6FB731A403D
:102E60000280704721B1828842F08002828004E0B3
:102E700082884FF67F731A408280704702884FF62F
:102E8000F7731A40028002880A43028070478288E2
:102E90004FF68F731A40828082880A43828070477F
:102EA00002894FF6F8731A40028102890A430281AF
:102EB000704702894FF67F731A40028102890A43E4
:102EC0000281704781847047818570478186704791
:102ED0000187704781877047A0F8401070470288CB
:102EE0004FF6FF431A40028002880A43028070476F
:102EF0000146888E70470146088F70470146888FCB
:102F000070470146B1F8400070470146888C704711
:102F10000146088D704702460020138A0B4201D0FB
:102F2000012000E000207047CA430282704730B59C
:102F30000246002000230024158A05EA0103958932
:102F400005EA010413B10CB1012000E0002030BDFE
:102F5000CA4302827047000010B50446FC48844210
:102F600009D101218803FFF729F800214FF480409F
:102F7000FFF724F832E0F748844209D101214804E0
:102F8000FFF729F800214FF40030FFF724F825E07F
:102F9000F148844209D101218804FFF71CF800217F
:102FA0004FF48020FFF717F818E0EC48844209D16D
:102FB0000121C804FFF70FF800214FF40020FFF7AC
:102FC0000AF80BE0E648844208D101210805FFF722
:102FD00002F800214FF48010FEF7FDFF10BD2DE92F
:102FE000F04786B005460E460024A24600BFA14623
:102FF0000027B08900B100BF2F462C8A4CF6FF7025
:103000000440F08804432C82AC894EF6F31004404F
:10301000B08831890843718908430443AC81AC8A84
:103020004FF6FF400440B0890443AC8201A8FEF78C
:103030003EFFC748874202D1DDF810A001E0DDF86D
:103040000CA0A88910F4004F08D00AEBCA0000EBCE
:103050000A1031684900B0FBF1F807E00AEBCA003A
:1030600000EB0A1031688900B0FBF1F86420B8FB6E
:10307000F0F004012009642101FB1089A88910F4F3
:10308000004F08D0322000EBC900B0FBF1F000F097
:103090000700044308E0322000EB09106421B0FB74
:1030A000F1F000F00F0004432C8106B0BDE8F0877A
:1030B0004FF41651016000218180C18001810C21F3
:1030C000418100218181704710B502460020108A9D
:1030D0004FF2FF0318400B884C8823438C8823430E
:1030E000CC8823431843108210BD00210180418009
:1030F0008180C180704721B1828942F4005282816F
:1031000004E082894DF6FF731A4082817047F0B562
:1031100003460024002600250020A1F510676A3F21
:1031200000D100BF1846C1F3421401F01F06012769
:1031300007FA06F5012C01D10C3004E0022C01D174
:10314000103000E014301AB107682F43076002E026
:103150000768AF430760F0BD10B51AB1838A0B430F
:10316000838204E0838ACC43A4B22340838210BDCF
:10317000028A4FF6F0731A400282028A0A430282E0
:10318000704782894FF2FF731A40828182890A4315
:103190008281704721B1828942F00202828104E07B
:1031A00082894FF6FD731A4082817047028A4FF67A
:1031B000DF731A400282028A0A430282704721B1F9
:1031C000028A42F48042028204E0028A4BF6FF73D4
:1031D0001A4002827047C1F308028280704701469C
:1031E0008888C0F308007047818941F0010181811E
:1031F0007047028BD2B20283028B42EA0122028321
:103200007047028B02F47F420283028B0A430283DF
:10321000704721B1828A42F02002828204E0828AD1
:103220004FF6DF731A408282704721B1828A42F0E2
:103230001002828204E0828A4FF6EF731A40828283
:10324000704721B1828A42F00802828204E0828AB9
:103250004FF6F7731A408282704721B1828942F497
:103260000042828103E08289C2F30E0282817047AC
:1032700021B1828A42F40062828204E0828A4FF2A3
:10328000FF731A4082827047828A4FF6FB731A409E
:103290008282828A0A438282704721B1828A42F006
:1032A0000202828204E0828A4FF6FD731A40828213
:1032B000704702460020B1F5007F00D100BF13889F
:1032C0000B4201D0012000E00020704701F40072A1
:1032D000B2F5007F00D100BFCA430280704770B5CD
:1032E00002460024002300250020A1F510666A3E56
:1032F00000D100BFC1F3421501F01F03012606FAF9
:1033000003F3012D02D19689334006E0022D02D14C
:10331000168A334001E0968A33400C12012606FAE1
:1033200004F41688344013B10CB1012000E00020F1
:1033300070BD10B500220023A1F510646A3C00D1D5
:1033400000BF0A1201249440A3B2DC43048010BDE4
:10335000003801400044004000480040004C00405C
:103360000050004008B5002000902EF065FE31F0BE
:1033700033FF0221124832F05EFE12490860142128
:10338000114832F058FE11490860002033F03AF934
:103390000F4908606946012032F04CFB0D49086076
:1033A0006946012032F046FB0B49086018230B4A9E
:1033B00000210B4833F0F0FA31F0F6FF002008BD91
:1033C0004800002044000020C429002050000020B4
:1033D00054000020580000205C000020E031002054
:1033E000A578000870471EF0F3F910E000204E4960
:1033F000096809B9012100E000214B4A11604FF032
:10340000000000E0401C49498842FBDB00BFEDE7BB
:1034100000BFFEE700BFFEE700BFFEE77047704752
:10342000704710B531F0F2FE31F0F5FF31F0FCFEDF
:1034300010BD10B531F0EAFE2020FDF729FC68B17F
:10344000C8202EF06DFE3A48006818B927F0DEFD5E
:103450002BF058FC2020FDF717FC02E00120FDF7BF
:1034600013FC31F0E1FE10BD10B531F0CFFE4FF48A
:103470000060FDF70DFC60B100202EF051FE2D48DC
:10348000006808B927F0F1FD4FF40060FDF7FCFB80
:1034900027E04FF48060FDF7FBFB68B12648006829
:1034A0002EF03EFE2548006808B927F0CFFD4FF406
:1034B0008060FDF7E9FB14E04FF48050FDF7E8FB76
:1034C00060B105202EF02CFE1D48006808B927F0D9
:1034D000DBFD4FF48050FDF7D7FB02E00120FDF744
:1034E000D3FB31F0A1FE10BD10B531F08FFE40F2DC
:1034F00025511448FFF7F3FE012807D140F225516A
:103500001048FFF716FF10480068804740F2277107
:103510000C48FFF7E4FE012802D10C480068804700
:1035200031F082FE10BD00008481214240420F0034
:10353000140121422C0121423C000020280121429B
:10354000300121420044004060000020640000205F
:1035500001460020012902D002290ED106E04FF4D5
:10356000FA600223F74A82F8F03606E04FF4FA6078
:103570000223F44A82F8C83900BF00BF704700B583
:10358000F14890F82400052821D2DFE800F0030874
:103590000D1219004FF4FA70EB49C88417E04FF48C
:1035A0007A70E949C88412E041F28830E649C8845B
:1035B0000DE00520E449C87042F20F70C88406E0AF
:1035C0000620E149C8704FF4FA60C88400BF00BF0C
:1035D000DD4890F83400052821D2DFE800F0030828
:1035E0000D1219004FF4FA70D749C88617E04FF44E
:1035F000FA60D549C88612E041F27070D249C88697
:103600000DE00520D049C87042F20F70C88606E070
:103610000620CD49C8704FF4FA60C88600BF00BFCD
:10362000C94890F83F00062822D2DFE800F02103C5
:10363000090F151B4FF47A70C349A1F8400017E039
:1036400040F2DC50C049A1F8400011E040F6C4103F
:10365000BD49A1F840000BE041F28830BA49A1F819
:10366000400005E042F20F70B749A1F8400000BFEA
:1036700000BFB548007810F0020F04D00120FFF71A
:1036800067FFB1494885B048007810F0040F04D0B6
:103690000220FFF75DFFAC494887AB48C07938B9D5
:1036A0004FF47A60A84948814FF4C870888104E0DB
:1036B0000920A54948810120888100BD10B50E2050
:1036C000A149087000208871487188700420C87072
:1036D00000200871C8710120087281F866008873A3
:1036E00041F2883008833F2048740020887601200A
:1036F000C8764FF4FA7088820120C87303200874DA
:10370000022081F8240041F28830C88432200885E4
:103710000620888301208877142008840020C87739
:10372000022081F8340041F27070C8863220088788
:1037300030204884002081F83D00012081F83F00BE
:103740004FF47A70A1F840003220A1F842007F487F
:1037500048644FF07E508864002081F84C000620B9
:1037600081F85D00022081F85E004FF44860A1F806
:103770004E004FF49670A1F8500041F2EC30A1F8E1
:1037800052000020A1F85400062081F856000020C5
:1037900081F8630081F865009620A1F858004FF485
:1037A0004860A1F85A008020C8854FF4FA70488616
:1037B0000886FFF7E4FE10BD10B51E2062490870B0
:1037C000082088710F2008743F2048740120C876B3
:1037D000022081F824000620888316200884022015
:1037E00081F834003E204884012081F83F003220D7
:1037F000A1F8420056484864002081F84C00062099
:1038000081F85D0081F85600012081F863000020F6
:1038100081F8640081F865000E2081F8570080204F
:10382000C885FFF7ACFE10BD10B5062046490870EC
:103830000820887103200874022081F824000620E3
:10384000888316200884022081F834003E204884B2
:10385000012081F83F004FF47A70A1F84000322037
:10386000A1F842003B484864002081F84C00062043
:1038700081F85600012081F863008020C885FFF799
:103880007EFE10BD10B506202F49087004208871F7
:1038900003200874022081F8240006208883162063
:1038A0000884022081F834003E204884042081F8F6
:1038B0003F004FF47A70A1F840003220A1F8420096
:1038C00024484864002081F84C00062081F8560006
:1038D000012081F863008020C885FFF750FE10BDED
:1038E00010B5062018490870042088710120C8719D
:1038F00003200874022081F8240006208883002019
:10390000887714200884022081F83400302048840D
:10391000042081F83F004FF47A70A1F84000322073
:10392000A1F842000B484864002081F84C000620B2
:1039300081F85600012081F863008020C885FFF7D8
:103940001EFE10BD640D00204829002000401C46CA
:10395000804FC347003C1C4610B50E20FA49087042
:10396000042088710120C87103200874022081F8A6
:1039700024000620888300208877162008840220EF
:1039800081F834003E204884012081F83F004FF444
:103990007A70A1F84000ED484864002081F84C009E
:1039A000062081F85600012081F863008020C88538
:1039B000FFF7E5FD10BD10B51E20E349087000209B
:1039C0008871C87103200874022081F82400062041
:1039D000888316200884022081F834003E20488421
:1039E000012081F83F004FF47A70A1F840003220A6
:1039F000A1F84200D6484864002081F84C0001201C
:103A000081F84D0041F2EC30A1F852004FF47A6099
:103A1000A1F84E00062081F85600002081F86300CE
:103A20008020C885FFF7ABFD10BD10B50C20C6493E
:103A3000087000208871C87103200874022081F882
:103A400024000620888316200884032081F834008F
:103A50003E204884012081F83F004FF47A70A1F89D
:103A600040003220A1F84200B9484864002081F8A3
:103A70004C00012081F84D0041F2EC30A1F85200D9
:103A80004FF47A60A1F84E00062081F8560000201D
:103A900081F863008020C885FFF771FD10BD10B567
:103AA0001E20A949087000208871032008743F2057
:103AB00048740520C8700120C876032081F82400CE
:103AC0004FF4FA70088506208883162008840320A6
:103AD00081F834004FF4FA7008873E2048840320B0
:103AE00081F83F004FF4FA70A1F84200984848640A
:103AF00098488864002081F84C0081F84D00062029
:103B000081F85D0081F8560041F27070A1F84E0016
:103B10004FF49670A1F8500040F6B830A1F85A0062
:103B2000012081F86300002081F8640081F86500BD
:103B30000E2081F857006920A1F858008020C88520
:103B4000FFF71DFD10BD10B51E207F490870002035
:103B50008871032008743F2048740520C870012034
:103B6000C876032081F824004FF4FA7008850620F7
:103B7000888316200884032081F834004FF4FA70FB
:103B800008873E204884042081F83F004FF4FA70F3
:103B9000A1F842006E4848646E488864002081F8AD
:103BA0004C0081F84D00062081F85D0081F8560038
:103BB00041F27070A1F84E004FF49670A1F85000D9
:103BC00040F6B830A1F85A00012081F863000020C7
:103BD00081F8640081F865000E2081F857006920A3
:103BE000A1F858008020C885FFF7C9FC10BD10B5AA
:103BF0001E2055490870082088710020C8710320D4
:103C00000874022081F82400062088831620088486
:103C1000022081F834003E204884012081F83F00D2
:103C20004FF47A70A1F840003220A1F842004A48CF
:103C30004864002081F84C0081F84D0041F2EC30DE
:103C4000A1F852004FF44860A1F84E00062081F818
:103C50005600002081F863008020C885FFF78FFCA4
:103C600010BD10B51E203849087000208871C87139
:103C700003200874022081F824000620888316207F
:103C80000884022081F834003E204884032081F813
:103C90003F004FF4FA70A1F842002D4848642D48C7
:103CA0008864002081F84C00012081F86300022024
:103CB00081F84D0041F2EC30A1F852004FF47A60E7
:103CC000A1F84E00062081F856008020C885FFF735
:103CD00056FC10BD10B51E201B49087000208871CD
:103CE000C87103200874022081F82400062088830C
:103CF00016200884022081F834003E2048840420E5
:103D000081F83F004FF4FA70A1F84200104848646F
:103D100010488864002081F84C00012081F863007D
:103D2000022081F84D0041F2EC30A1F852004FF42E
:103D30007A60A1F84E00062081F856008020C885E0
:103D4000FFF71DFC10BD00004829002000409C45E5
:103D5000005043470000A04000401C4610B5022020
:103D6000FE490870002088710120C8710871032085
:103D70000874022081F82400062088839620088495
:103D8000022081F834003E204884012081F83F0061
:103D90004FF47A70A1F840003220A1F84200F048B8
:103DA0004864002081F84C00012081F86300022063
:103DB00081F84D0041F2EC30A1F8520041F27070F0
:103DC000A1F84E00062081F856008020C885FFF734
:103DD000D6FB10BD10B50620E049087000208871A0
:103DE0000120C8710320087401200871022081F8A5
:103DF00024000620888396200884022081F834005D
:103E00003E204884012081F83F004FF47A70A1F8E9
:103E100040003220A1F84200D1484864002081F8D7
:103E20004C00012081F86300022081F84D0041F22E
:103E3000EC30A1F8520041F27070A1F84E0006205B
:103E400081F856008020C885FFF799FB10BD10B59A
:103E50000620C2490870002088710120C871032023
:103E6000087401200871032081F82400062088834B
:103E700016200884032081F834003E204884012065
:103E800081F83F004FF47A70A1F840003220A1F889
:103E90004200B3484864002081F84C00012081F8BA
:103EA0006300022081F84D0041F2EC30A1F852008D
:103EB00041F27070A1F84E00062081F85600802073
:103EC000C885FFF75CFB10BD10B50620A34908703C
:103ED000002088710120C871032008740120087136
:103EE000032081F8240006208883362008840320DC
:103EF00081F834003E204884012081F83F004FF4CF
:103F00007A70A1F840003220A1F842009448486439
:103F1000002081F84C00012081F86300022081F824
:103F20004D0041F2EC30A1F8520041F27070A1F85E
:103F30004E00062081F856008020C885FFF71FFB41
:103F400010BD10B50E208549087008208871022028
:103F500081F8240040F2FE30888316200884022075
:103F600081F834003E2048844FF47A70A1F8400074
:103F70003220A1F842007A484864002081F84C00C1
:103F800003200874FFF7FBFA10BD10B50E2073492B
:103F900008700820887103200874022081F824002A
:103FA00040F2FE30888316200884022081F8340015
:103FB0003E204884012081F83F004FF47A70A1F838
:103FC00040003220A1F8420065484864002081F892
:103FD0004C00FFF7D4FA10BD10B52E205F490870D1
:103FE000082088710020C87103200874002008711F
:103FF000022081F8240006208883162008840220ED
:1040000081F834003E204884012081F83F004FF4BD
:104010007A70A1F840003220A1F84200504848646C
:10402000002081F84C00012081F86300022081F813
:104030004D0041F2EC30A1F8520041F27070A1F84D
:104040004E00062081F856008020C885FFF797FAB9
:1040500010BD10B50E204149087004208871002061
:10406000C8710320087400200871022081F8240020
:104070000620888316200884022081F834003E2020
:104080004884012081F83F004FF47A70A1F8400085
:104090003220A1F8420032484864002081F84C00E8
:1040A000012081F86300022081F84D0041F2EC30DC
:1040B000A1F8520041F27070A1F84E00062081F87C
:1040C00056008020C885FFF75AFA10BD10B50E20A3
:1040D00022490870002088710620888316200884F1
:1040E000022081F8240081F834003E204884012019
:1040F00081F83F004FF47A70A1F840003220A1F817
:104100004200174848644FF44860A1F84E00002070
:1041100081F84C00062081F85600002081F86300E9
:10412000FFF72DFA10BD10B50E200C4908700120C4
:10413000C87000208871062088831620088400201B
:1041400081F824000A200885002081F834003E20F0
:1041500048840A200887002004E000004829002045
:1041600000401C4681F83F00FFF709FA4FF47A70CF
:10417000FE49A1F840003220A1F84200FC48486402
:10418000002081F84C004FF44860A1F84E00062052
:1041900081F85600002081F8630010BD10B50E2094
:1041A000F249087000208871062088831620088450
:1041B000022081F8240081F834003E204884012048
:1041C00081F83F004FF47A70A1F840003220A1F846
:1041D0004200E74848644FF44860A1F84E000020D0
:1041E00081F84C00062081F85600002081F8630019
:1041F000FFF7C5F910BD10B50E20DC49087000208E
:1042000088710620888316200884022081F8240003
:1042100081F834003E204884022081F83F0032209B
:10422000A1F84200D2484864002081F84C004FF4C5
:104230004860A1F84E00062081F85600002081F861
:104240006300FFF79CF910BD10B50E20C749087038
:10425000002088710620888316200884022081F8B7
:10426000240081F834003E204884012081F83F007A
:104270004FF47A70A1F840003220A1F84200BD4806
:1042800048644FF44860A1F84E00002081F84C00CB
:10429000062081F85600002081F86300FFF76FF9CF
:1042A00010BD10B50A20B149087000208871C8718E
:1042B0000320087400200871022081F824000620E1
:1042C000888316200884022081F834003E20488428
:1042D000012081F83F004FF47A70A1F840003220AD
:1042E000A1F84200A2484864002081F84C00012057
:1042F00081F86300022081F84D0041F2EC30A1F812
:10430000520041F27070A1F84E00062081F856006C
:104310008020C885FFF733F910BD10B51E209349E2
:10432000087000208871C87103200874002008718B
:10433000022081F8240006208883162008840220A9
:1043400081F834003E204884012081F83F004FF47A
:104350007A70A1F840003220A1F8420084484864F5
:10436000002081F84C0081F8630081F84D0041F293
:10437000EC30A1F852004FF44860A1F84E0006203E
:1043800081F856008020C885FFF7F9F810BD10B5F8
:104390001E207649087000208871C87103200874B7
:1043A00000200871022081F824000620888356200E
:1043B0000884022081F83400DE204884012081F83E
:1043C0003F004FF47A70A1F840003220A1F842007B
:1043D00067484864002081F84C0081F8630081F848
:1043E0004D0041F2EC30A1F852004FF44860A1F8C2
:1043F0004E00062081F856008020C885FFF7BFF8E0
:1044000010BD10B5FFF7BBF810BD10B50620574919
:10441000087000208871C87103200874002008719A
:10442000022081F8240006208883162008840220B8
:1044300081F834003E204884012081F83F004FF489
:104440007A70A1F840003220A1F842004848486440
:10445000002081F84C0081F8630081F84D0041F2A2
:10446000EC30A1F852004FF44860A1F84E0006204D
:1044700081F856008020C885FFF781F810BD10B57F
:1044800046203A49087000208871C87103200874DA
:1044900000200871022081F824000620888316205D
:1044A0000884022081F834003E204884012081F8ED
:1044B0003F004FF47A70A1F840003220A1F842008A
:1044C0002B484864002081F84C0081F8630081F893
:1044D0004D0041F2EC30A1F852004FF44860A1F8D1
:1044E0004E00062081F856008020C885FFF747F867
:1044F00010BD10B504201D490870012088700020EF
:104500008871C8710320087400200871C82088824F
:10451000022081F8240006208883162008840120C8
:1045200081F834003E20488414200887012081F857
:104530003F004FF47A70A1F840003220A1F8420009
:104540000B484864002081F84C0081F8630081F832
:104550004D0041F2EC30A1F852004FF44860A1F850
:104560004E00062081F85600802005E048290020F2
:1045700000401C460050C347C885FFF700F810BD37
:1045800010B50220F949087000208871C871032015
:10459000087400200871022081F824000620888316
:1045A00036200884022081F834003E20488401200F
:1045B00081F83F004FF47A70A1F840003220A1F852
:1045C0004200EB484864002081F84C0081F8630009
:1045D00081F84D0041F2EC30A1F852004FF44860F0
:1045E000A1F84E00062081F856008020C885FEF70D
:1045F000C6FF10BD10B50620DC4908700020887188
:10460000C8710320087400200871022081F824007A
:104610000620888336200884022081F834005E203A
:104620004884012081F83F004FF47A70A1F84000DF
:104630003220A1F84200CE484864002081F84C00A6
:1046400081F8630081F84D0041F2EC30A1F852008E
:104650004FF44860A1F84E00062081F856008020F3
:10466000C885FEF78CFF10BD10B5FEF788FF10BDA2
:1046700010B51020BD49087000208871C871032052
:10468000087400200871022081F824000620888325
:1046900036200884022081F834005E2048840120FE
:1046A00081F83F004FF47A70A1F840003220A1F861
:1046B0004200AF484864002081F84C0081F8630054
:1046C000012081F84D0041F2EC30A1F852004FF486
:1046D0007A60A1F84E00062081F856008020C88537
:1046E000FEF74DFF10BD10B51020A0490870002046
:1046F0008871C8710320087400200871022081F8B5
:1047000024000620888336200884022081F83400A3
:104710005E204884012081F83F004FF47A70A1F8B0
:1047200040003220A1F8420091484864002081F8FE
:104730004C0081F86300032081F84D0041F2EC3019
:10474000A1F8520041F63800A1F84E00062081F889
:1047500056008020C885FEF712FF10BD10B50E2050
:104760008249087000208871C871032008740020F5
:104770000871022081F824000620888336200884EE
:10478000022081F834005E204884012081F83F0037
:104790004FF47A70A1F840003220A1F8420074482A
:1047A0004864002081F84C0081F86300032081F800
:1047B0004D0041F2EC30A1F8520041F63800A1F86A
:1047C0004E00062081F856008020C885FEF7D7FEEF
:1047D00010BD10B50E2065490870002088710620B4
:1047E000888356200884022081F8240081F8340050
:1047F000DE204884012081F83F004FF47A70A1F850
:1048000040003220A1F8420059484864002081F855
:104810004C004FF44860A1F84E00062081F8560085
:10482000002081F86300FEF7AAFE10BD10B50E202F
:104830004E4908700020887106208883022081F884
:10484000240056200884022081F83400DE204884A9
:10485000012081F83F004FF47A70A1F84000322027
:10486000A1F8420042484864002081F84C004FF40F
:104870004860A1F84E00062081F85600002081F81B
:104880006300FEF77CFE10BD10B5022037490870AA
:1048900000208871022081F8240006208883562099
:1048A0000884022081F83400DE204884FEF767FE89
:1048B00010BD10B502202D4908700020887102201B
:1048C00081F8240006208883562008840120C877B8
:1048D000022081F83400DE204884FEF750FE10BD2F
:1048E00010B502202149087000208871887781F86E
:1048F00024000620888356200884FEF740FE4FF4EB
:10490000FA701A49C8840A20088510BD10B506201F
:104910001649087000208871022081F824000620C2
:10492000888356200884022081F83400DE204884E1
:10493000FEF725FE10BD10B506200C4908700020BA
:104940008871022081F8240006208883562008847C
:10495000022081F83400DE204884012081F83D00E7
:1049600081F83E00FEF70BFE10BD00004829002034
:1049700000401C4610B50E20FE49087008208871C2
:104980000020C8710320087400200871022081F8FB
:1049900024000620888316200884022081F8340031
:1049A0003E204884012081F83F004FF47A70A1F83E
:1049B00040003220A1F84200EF484864002081F80E
:1049C0004C0081F86300032081F84D0041F2EC3087
:1049D000A1F8520041F63800A1F84E00062081F8F7
:1049E00056008020C885FEF7CAFD10BD10B50E2008
:1049F000E0490870082088710020C87103200874FD
:104A000000200871022081F82400062088835620A7
:104A10000884022081F83400DE204884012081F8D7
:104A20003F004FF47A70A1F840003220A1F8420014
:104A3000D1484864002081F84C0081F863000320CD
:104A400081F84D0041F2EC30A1F8520041F63800F7
:104A5000A1F84E00062081F856008020C885FEF798
:104A60008EFD10BD10B51620C24908700020887157
:104A7000C8710320087400200871022081F8240006
:104A80000620888316200884022081F834003E2006
:104A90004884012081F83F004FF47A70A1F840006B
:104AA0003220A1F84200B4484864002081F84C004C
:104AB00081F8630081F84D0041F2EC30A1F852001A
:104AC0004FF44860A1F84E00062081F8560080207F
:104AD000C885FEF754FD10BD10B50620A549087025
:104AE00000208871C871032008740020087102201A
:104AF00081F824000620888316200884022081F88B
:104B000034003E204884012081F83F004FF47A7041
:104B1000A1F840003220A1F84200974848640020E4
:104B200081F84C0081F8630081F84D0041F2EC30CF
:104B3000A1F852004FF44860A1F84E00062081F819
:104B400056008020C885FEF71AFD10BD10B506205E
:104B50008849087000208871C871032008740020FB
:104B60000871022081F824000620888356200884DA
:104B7000022081F83400DE204884012081F83F00C3
:104B80004FF47A70A1F840003220A1F842007A4830
:104B90004864002081F84C0081F8630081F84D00E2
:104BA00041F2EC30A1F852004FF44860A1F84E00F9
:104BB000062081F856008020C885FEF7E0FC10BD75
:104BC00010B5FEF7DCFC10BD10B50E206949087069
:104BD00088710020C8710320087400200871022029
:104BE00081F824000620888316200884022081F89A
:104BF00034003E204884012081F83F004FF47A7051
:104C0000A1F840003220A1F842005B48486400202F
:104C100081F84C0081F8630081F84D0041F2EC30DE
:104C2000A1F852004FF44860A1F84E00062081F828
:104C300056008020C885FEF7A2FC10BD10B50620E6
:104C40004C490870082088710020C871032008743E
:104C500000200871022081F8240006208883162095
:104C60000884022081F834003E204884012081F825
:104C70003F004FF47A70A1F840003220A1F84200C2
:104C80003D484864002081F84C0081F8630081F8B9
:104C90004D0041F2EC30A1F852004FF44860A1F809
:104CA0004E00062081F856008020C885FEF767FC7C
:104CB00010BD10B50E202F49087000208871C871F2
:104CC0000320087400200871022081F824000620C7
:104CD000888316200884022081F834003E2048840E
:104CE000012081F83F004FF47A70A1F84000322093
:104CF000A1F8420020484864002081F84C0081F867
:104D0000630081F84D0041F2EC30A1F852004FF4FD
:104D10004860A1F84E00062081F856008020C88522
:104D2000FEF72DFC10BD10B50E20124908700020B2
:104D30008871C8710320087400200871022081F86E
:104D400024000620888356200884022081F834003D
:104D5000DE204884012081F83F004FF47A70A1F8EA
:104D600040003220A1F8420003484864002081F846
:104D70004C0003E0482900200050434781F86300BD
:104D800081F84D0041F2EC30A1F852004FF4486038
:104D9000A1F84E00062081F856008020C885FEF755
:104DA000EEFB10BD10B50E20FC4908700020887184
:104DB000C8710320087400200871022081F82400C3
:104DC0000620888336200884022081F834003E20A3
:104DD0004884032081F83F0040F6C410A1F8400049
:104DE0004FF4FA70A1F84200ED488864ED48486439
:104DF000002081F84C0081F8630081F84D0041F2F9
:104E0000EC30A1F852004FF44860A1F84E000620A3
:104E100081F856008020C885FEF7B1FB10BD10B5A3
:104E20000820DE49087000208871C87103200874CA
:104E300000200871022081F82400062088831620B3
:104E40000884022081F834003E204884032081F841
:104E50003F0040F6C410A1F840004FF4FA70A1F8EA
:104E60004200CF488864CF484864002081F84C0055
:104E700081F8630081F84D0041F2EC30A1F8520056
:104E80004FF44860A1F84E00062081F856008020BB
:104E9000C885FEF774FB10BD10B51E20BF49087011
:104EA00000208871C8710320087400200871022056
:104EB00081F824000620888316200884022081F8C7
:104EC00034003E204884012081F83F004FF47A707E
:104ED000A1F840003220A1F84200B2484864002006
:104EE00081F84C0081F8630081F84D0041F2EC300C
:104EF000A1F852004FF44860A1F84E00062081F856
:104F000056008020C885FEF73AFB10BD10B5102072
:104F1000A249087000208871C8710320087400201D
:104F20000871022081F82400062088831620088456
:104F3000022081F834003E204884012081F83F009F
:104F40004FF47A70A1F840003220A1F84200954851
:104F50004864002081F84C0081F8630081F84D001E
:104F600041F2EC30A1F852004FF44860A1F84E0035
:104F7000062081F856008020C885FEF700FB10BD92
:104F800010B510208549087000208871C871032071
:104F9000087400200871022081F82400062088830C
:104FA00016200884022081F834003E204884012025
:104FB00081F83F004FF47A70A1F840003220A1F848
:104FC000420078484864002081F84C0081F8630072
:104FD00081F84D0041F2EC30A1F852004FF47A60B4
:104FE000A1F84E00062081F856008020C885FEF703
:104FF000C6FA10BD10B506206849087000208871F7
:10500000C8710320087400200871022081F8240070
:105010000620888356200884022081F83400DE2090
:105020004884012081F83F004FF47A70A1F84000D5
:105030003220A1F842005B484864002081F84C000F
:1050400081F8630081F84D0041F2EC30A1F8520084
:105050004FF44860A1F84E00062081F856008020E9
:10506000C885FEF78CFA10BD10B506204B490870B4
:1050700008208871062088830020887714200884FF
:1050800030204884022081F8240081F83400062072
:1050900081F85600012081F86300002081F84C005F
:1050A000FEF76DFA10BD10B506203C4908700420CB
:1050B0008871062088830020887714200884302097
:1050C0004884022081F8240081F83400062081F809
:1050D0005600012081F86300002081F84C00FEF7A3
:1050E0004EFA10BD10B50E202C49087008208871AA
:1050F000022081F8240006208883142008840220DE
:1051000081F8340030204884012081F83F004FF4BA
:105110007A70A1F84000FA20A1F8420022484864C1
:10512000002081F84C004FF44860A1F84E000620A2
:1051300081F85600002081F863000120C873FEF753
:105140001EFA10BD10B50E20144908700420887195
:10515000022081F82400062088831420088402207D
:1051600081F83400302048844FF47A70A1F8400070
:10517000FA20A1F842000C484864002081F84C0055
:105180004FF44860A1F84E00062081F85600002038
:1051900081F86300FEF7F3F910BD000048290020F4
:1051A0000000A0400050434700409C4510B50E2031
:1051B000FE4908700020887101200871022081F8E2
:1051C00024000620888396200884022081F8340079
:1051D0003E2048844FF47A70A1F840003220A1F8B4
:1051E0004200F3484864002081F84C004FF44860C6
:1051F000A1F84E00062081F85600002081F86300D7
:10520000FEF7BDF910BD10B50220E8490870002076
:1052100088710871032081F8240040F2FE308883F1
:105220000E2008844FF4FA700885FEF7A8F910BD27
:1052300010B50220DD490870002088710871032034
:1052400081F8240040F2FE308883162008844FF451
:10525000FA700885FEF793F910BD10B50420D34904
:105260000870002088710871032081F834003E2006
:1052700048844FF4FA700887FEF781F910BD10B525
:105280000220CA490870002088710871032081F843
:10529000240040F2FE308883362008844FF4FA70F0
:1052A0000885FEF76CF910BD10B50620BF490870DF
:1052B000082088710120C87148710871032081F8A5
:1052C000240006208883362008844FF4FA7008856D
:1052D000032081F834003E2048844FF4FA70088798
:1052E000FEF74DF910BD10B50620B0490870082032
:1052F00088710120C87148710871032081F8240069
:1053000006208883362008844FF4FA70088503202D
:1053100081F834003E2048844FF4FA700887FEF785
:105320002EF910BD10B50420A04908700020887126
:1053300081F866000871032081F8240040F2FE30F5
:105340008883362008844FF4FA700885032081F89A
:1053500034005E2048844FF4FA700887012081F8F9
:105360003D00FEF70CF910BD10B502208F49087002
:1053700000208871C871032008740020087104207F
:1053800081F82400062088830E200884022081F8FA
:1053900034003E204884012081F83F004FF47A70A9
:1053A000A1F840003220A1F8420082484864002061
:1053B00081F84C0081F8630081F84D0041F2EC3037
:1053C000A1F852004FF44860A1F84E00062081F881
:1053D00056008020C885FEF7D2F810BD10B5042015
:1053E0007249087000208871C87103200874002079
:1053F0000871042081F82400062088830E20088488
:10540000042081F834003E204884012081F83F00C8
:105410004FF47A70A1F840003220A1F842006548AC
:105420004864002081F84C0081F8630081F84D0049
:1054300041F2EC30A1F852004FF44860A1F84E0060
:10544000062081F856008020C885FEF798F810BD28
:1054500010B50E205549087000208871C8710320CE
:10546000087400200871032081F824000620888336
:1054700016200884032081F834003E20488401204F
:1054800081F83F004FF47A70A1F840003220A1F873
:10549000420048484864002081F84C0081F86300CD
:1054A00081F84D0041F2EC30A1F852004FF4486011
:1054B000A1F84E00062081F856008020C885FEF72E
:1054C0005EF810BD10B50E203849087000208871B4
:1054D000C87103200874002008710520C8700320DB
:1054E00081F824000620888316200884032081F890
:1054F00034003E204884032081F83F00FEF73FF847
:105500004FF4FA702949A1F842002B4888642948D1
:105510004864002081F84C0081F8630081F84D0058
:1055200041F2EC30A1F852004FF44860A1F84E006F
:10553000062081F856008020C88510BD10B50E20C9
:105540001A49087000208871C8710320087400206F
:1055500008710520C870032081F824000620888384
:1055600016200884032081F834003E20488404205B
:1055700081F83F004FF4FA70A1F842000E488864A9
:105580000C484864002081F84C0081F8630081F8E1
:105590004D0041F2EC30A1F852004FF44860A1F800
:1055A0004E00062081F85600802007E048290020A0
:1055B00000401C46005043470000A040C885FDF74E
:1055C000DEFF10BD10B50E20F8490870002088716C
:1055D000C87103200874002008710520C8700320DA
:1055E00081F824000620888316200884032081F88F
:1055F00034003E204884052081F83F0042F20F70BD
:10560000A1F8400041F28830A1F84200E8488864DF
:10561000E8484864002081F84C0081F8630081F874
:105620004D0041F2EC30A1F852004FF44860A1F86F
:105630004E00062081F856008020C885FDF79FFFA8
:1056400010BD10B50E20D949087000208871C871AE
:105650000320087400200871032081F8240006202C
:10566000888316200884032081F834003E20488473
:10567000012081F83F004FF47A70A1F840003220F9
:10568000A1F84200CB484864002081F84C0081F822
:10569000630081F84D0041F2EC30A1F852004FF464
:1056A0004860A1F84E00062081F856008020C88589
:1056B000FDF765FF10BD10B5FDF761FF10BD10B51A
:1056C0001E20BA49087000208871022081F8240049
:1056D0000620888316200884022081F834003E20AA
:1056E00048844FF47A70A1F84000002081F84C0003
:1056F000022081F85E004FF47A60A1F84E004FF46A
:105700009670A1F8500041F2EC30A1F8520006204A
:1057100081F85600012081F86300002081F86400C0
:10572000FDF72DFF10BD10B51E20A0490870002008
:105730008871022081F824000620888316200884BE
:10574000022081F834003E204884022081F83F0086
:105750003220A1F8420097484864002081F84C00AC
:10576000022081F85E004FF47A60A1F84E004FF4F9
:105770009670A1F8500041F2EC30A1F852004FF4BD
:105780007A60A1F85A00062081F85600012081F8BD
:105790006300002081F86400FDF7F1FE10BD10B534
:1057A0001E208249087000208871022081F82400A0
:1057B0000620888316200884022081F834003E20C9
:1057C0004884032081F83F004FF4FA70A1F84200AA
:1057D0007848486478488864002081F84C000220AA
:1057E00081F85E004FF47A60A1F84E004FF4967095
:1057F000A1F8500041F2EC30A1F852004FF47A6069
:10580000A1F85A00062081F85600012081F86300B3
:10581000002081F86400FDF7B2FE10BD10B51E2017
:105820006249087000208871022081F82400062057
:10583000888316200884022081F834003E204884A2
:10584000042081F83F004FF4FA70A1F84200594853
:10585000486459488864002081F84C00022081F88F
:105860005E004FF47A60A1F84E004FF49670A1F8F4
:10587000500041F2EC30A1F852004FF47A60A1F8E8
:105880005A00062081F85600012081F863000020AC
:1058900081F86400FDF773FE10BD10B50E2043497A
:1058A000087004208871022081F824000620888373
:1058B00014200884022081F8340030204884042019
:1058C00081F83F0041F28830A1F8400040F6B8303E
:1058D000A1F84E00FDF753FE10BD10B5FDF74FFEC9
:1058E00010BD10B504203149087000208871C871BE
:1058F000032008740120087100208874032081F8B7
:1059000024000620888316200884022081F83400B1
:10591000DE20488441F270700883012081F83F0046
:105920004FF47A70A1F840003220A1F842002148DB
:105930004864002081F84C0081F8630081F84D0034
:1059400041F2EC30A1F852004FF44860A1F84E004B
:10595000062081F856008020C885FDF710FE10BD96
:1059600010B51020114908704FF47A60A1F84E006C
:105970006420A1F8500041F2EC30A1F85200002060
:10598000A1F8540081F85D00052081F85D00062033
:1059900081F85600012081F8630081F864000E2030
:1059A00081F85700FDF7EBFD10BD000048290020ED
:1059B0000000FA43005043470000A04010B50E20FD
:1059C000FA490870082088710120C8710620888370
:1059D000002088771420088430204884022081F831
:1059E000240081F834004FF47A70A1F84000FA20C6
:1059F000A1F84200EE4848644FF44860A1F84E0018
:105A0000062081F85600002081F8630081F84C00E0
:105A10000120C87303200874FDF7B1FD10BD10B557
:105A20002E20E2490870082088710120C8710620E4
:105A3000888300208877142008843020488402203E
:105A400081F8240081F834004FF47A70A1F8400006
:105A5000FA20A1F84200D64848644FF44860A1F803
:105A60004E00062081F85600002081F8630081F87E
:105A70004C000120C87303200874FDF780FD10BDA1
:105A800010B52E20C9490870082088710120C871FE
:105A900006208883002088771420088430204884DA
:105AA000022081F8240081F834004FF47A70A1F8C4
:105AB0004000FA20A1F84200BD4848644FF4486015
:105AC000A1F84E00062081F85600002081F86300FE
:105AD00081F84C000120C87303200874FDF74FFDC6
