:020000040800F2
:1000000028C9002031020008E5330008E733000862
:10001000193400081D3400082134000800000000D5
:10002000000000000000000000000000253400086F
:1000300027340008000000001B9D03082B34000833
:100040004B0200084B0200084B020008A5480308B9
:100050004B0200084B0200084B0200084B0200084C
:100060004B0200084B0200084B0200084B0200083C
:100070004B0200084B0200084B0200084B0200082C
:100080004B0200084B0200084B0200084B0200081C
:100090004B0200084B0200084B0200083B340008EA
:1000A0004B0200084B0200084B0200084B020008FC
:1000B0006B490308E36003080F2F04084B02000894
:1000C0004B0200084B0200084B0200084B020008DC
:1000D0004B020008F72D0408F13400084B02000819
:1000E000713400084B0200084B0200084B02000864
:1000F0004B0200084B0200084B0200084B020008AC
:100100004B0200084B0200081F6703084B0200085F
:100110004B020008253C0408F73D04084B02000888
:100120004B0200084B0200084B0200084B0200087B
:1001300000F002F800F06DF80AA090E8000C82448C
:100140008344AAF10107DA4501D100F062F8AFF269
:10015000090EBAE80F0013F0010F18BFFB1A43F0A5
:100160000103184788D90500A8D905000A444FF0B3
:10017000000C10F8013B13F0070408BF10F8014B06
:100180001D1108BF10F8015B641E05D010F8016B4B
:10019000641E01F8016BF9D113F0080F1EBF10F8AF
:1001A000014BAD1C0C1B09D16D1E58BF01F801CBD2
:1001B000FAD505E014F8016B01F8016B6D1EF9D555
:1001C0009142D6D37047000000230024002500266A
:1001D000103A28BF78C1FBD8520728BF30C148BFAA
:1001E0000B607047642907F035A5732908F0CDA18D
:1001F000002070471FB54BF034F948F06FFA040047
:10020000002000214AF00AF8401C60601FBD10B5B4
:1002100010BD48F075FA1146FFF7ECFF03F0A2F8A5
:1002200048F093FA03B4FFF7F2FF03BC48F098FAE2
:100230000948804709480047FEE7FEE7FEE7FEE77A
:10024000FEE7FEE7FEE7FEE7FEE7FEE704480549B6
:10025000034A054B704700003503000831010008D0
:1002600028C5002028C9002028C500200021002022
:10027000674A126842F48032654B1A6000BF644AD4
:10028000126802F40030491C10B9B1F5A06FF6D124
:100290005F4A126812F4003F01D0012000E0002004
:1002A000012842D15B4A126842F01002594B1A6091
:1002B0001A46126822F003021A601A46126842F0C7
:1002C00002021A60524A5268514B5A601A465268EA
:1002D0005A601A46526842F480625A601A4652685E
:1002E00022F47C125A601A46526842F4E8125A60AC
:1002F0001A46126842F080721A6000BF444A1268BF
:1003000012F0007FFAD0424A526822F00302404BBA
:100310005A601A46526842F002025A6000BF3C4AD4
:10032000526802F00C02082AF9D1704710B5FFF7A5
:100330009DFF10BD10B53648006840F001003449FB
:10034000086008464068344908403149486008461A
:100350000068324908402E4908600846006820F4C9
:10036000802008600846406820F4FE0048604FF492
:100370001F008860FFF7DAFF4FF00060284908602F
:1003800010BD10B5002100200022214B5B6803F056
:100390000C0121B1042906D0082928D107E0214BFE
:1003A000214C236027E01F4B1F4C236023E0184B98
:1003B0005B6803F47010164B5B6803F48032022311
:1003C00003EB904022B9194B4343174C23600DE0D7
:1003D0000F4B5B6813F4003F04D0144B4343124CA3
:1003E000236003E00F4B43430F4C236003E00D4BAE
:1003F0000D4C236000BF00BF054B5B68C3F30313C4
:100400000B4CE15C084B1B68CB40074C236010BDD4
:1004100000100240002002400000FFF8FFFFF6FE3F
:1004200008ED00E000127A000000002000093D0005
:100430000400002031490143314A1160704770B512
:10044000002100230F22C4780CB32D4C246804F43F
:10045000E064C4F5E064210AC1F10403CA404478B1
:1004600004FA03F18478144021430901254C0678ED
:10047000A155047804F01F050124AC4005786D11E6
:100480004FF0E02606EB8505C5F8004109E0047849
:1004900004F01F050124AC401B4D0678761145F889
:1004A000264070BD194A0A400243154B1B1F1A60B3
:1004B000704739B1124A121D12680243104B1B1DBE
:1004C0001A6006E00E4A121D126882430C4B1B1D77
:1004D0001A607047042808D14FF0E021096941F003
:1004E00004014FF0E022116107E04FF0E0210969BB
:1004F00021F004014FF0E022116170470000FA057D
:100500000CED00E000E400E080E100E080FFFF1F70
:1005100010B50446F948844208D10121401501F084
:100520004DFD0021601501F049FD17E0F4488442BB
:1005300008D10121001501F041FD0021201501F035
:100540003DFD0BE0EF48844208D10121C80301F0D2
:1005500035FD00214FF4004001F030FD10BD30B5F5
:100560000246002000235068E74C20400D790C68BB
:1005700044EA0524204350609068E44C2040D1E9CF
:1005800002542C434D7944EA450420439060D06ADC
:1005900020F470000C7C641EE4B2234340EA035054
:1005A000D06230BD00210160017141718160C16084
:1005B00001210174704721B1826842F0010282601A
:1005C00003E0826822F001028260704721B18268F4
:1005D00042F48072826003E0826822F4807282605A
:1005E000704710B50023CBB21AB144681C43446075
:1005F00002E044689C43446010BD816841F00801FA
:1006000081607047014600208A6812F0080F01D00F
:10061000012000E000207047816841F00401816002
:100620007047014600208A6812F0040F01D00120B3
:1006300000E00020704721B1826842F4A00282608D
:1006400003E0826822F4A002826070470146002025
:100650008A6812F4800F01D0012000E0002070476A
:1006600010B50A4600210023416821F46041531E61
:1006700041EA4331416010BD21B1426842F4006259
:10068000426003E0426822F4006242607047F0B5C5
:1006900004460D4600200021092D11DDE068A5F17A
:1006A0000A0606EB4607072606FA07F18843A5F176
:1006B0000A0606EB460603FA06F10843E0600CE082
:1006C000206905EB4507072606FA07F1884305EB85
:1006D000450603FA06F108432061072A0FDA606B2A
:1006E000561E06EB86071F2606FA07F18843561E9C
:1006F00006EB860605FA06F10843606322E00D2A40
:100700000FDA206BD61F06EB86071F2606FA07F1C5
:100710008843D61F06EB860605FA06F108432063D8
:1007200010E0E06AA2F10D0606EB86071F2606FA26
:1007300007F18843A2F10D0606EB860605FA06F1DD
:100740000843E062F0BD21B1826842F48012826009
:1007500003E0826822F48012826070470146C86C10
:1007600080B2704765484C300068704721B14268DC
:1007700042F48062426003E0426822F48062426098
:10078000704721B1426842F48052426003E04268FF
:1007900022F48052426070470A460021816821F4A9
:1007A000E04111438160704721B1826842F4004208
:1007B000826003E0826822F400428260704721B1C7
:1007C000826842F40212826003E0826822F402121C
:1007D00082607047014600208A6812F4001F01D031
:1007E000012000E000207047F0B5044615460020C7
:1007F00000220026092911DDE068A1F10A0707EBB4
:10080000470C072707FA0CF29043A1F10A0707EB00
:10081000470703FA07F21043E0600CE0206901EBA0
:10082000410C072707FA0CF2904301EB410703FA4A
:1008300007F210432061A06BC0F30156EF1C06F1D4
:10084000010CA7EB0C0707EB870C1F2707FA0CF22C
:100850009043EF1C06F1010CA7EB0C0707EB870791
:1008600001FA07F21043A063F0BD10B50A4600215B
:100870000023816B21F44011531E41EA035181632F
:1008800010BD10B5002303460B441A6010BD02468C
:100890000023134601F128000344186880B2704712
:1008A0000A46002141681A4B1940114341607047C4
:1008B0004162826270470A460021416821F01F01AF
:1008C00011434160704740B10C490831096841F457
:1008D00000010A4A0832116007E008490831096836
:1008E00021F40001054A08321160704702460020D9
:1008F00013680B420ED001200DE0000000240140DF
:1009000000280140003C0140FFFEF0FFFDF7F1FF31
:10091000FFFD3FFF00207047CA430260704770B57B
:1009200002460020002300240B125568CEB205EACF
:10093000060415681D4202D00CB1012000E0002021
:1009400070BD00220A12D3430360704710B5012026
:1009500001F04EFB002001F04BFB10BD2449086064
:1009600070472349091F0860704721498431086096
:100970007047014600201F4A10884FF67F42104002
:1009800008431C4A1080704701460020194A10880D
:100990004FF6807210400843164A108070470022BC
:1009A000144A2C3A02441160704701460022114A51
:1009B0002C3A0A44108870470D489C300068C0B239
:1009C00070470C480830008840F0010009490831A0
:1009D000088070470648A0300068C0B270470548DC
:1009E0000830008840F00200024908310880704752
:1009F00004860D422C6C004001201049886070472D
:100A000001460E4801600068704710B502460B466B
:100A1000002100BF04E052F82100084C2060491C6E
:100A20009942F8D30548006810BD04480068704733
:100A30000249087170470148007970470030024050
:100A400010B50121480701F0C6FA00214FF000500F
:100A500001F0C1FA10BD30B500220023514C2268CC
:100A600040F6FE748440A243D1E900452C438D68D2
:100A70002C43CD6844EA050303FA00F42243494CB1
:100A8000226030BD0021016041608160C16070471B
:100A900039B1444A1268012383401A43414B1A601A
:100AA00006E0404A1268012383409A433D4B1A6096
:100AB000704741B13B4A12684FF4805383401A4358
:100AC000384B1A6007E0374A12684FF4805383406E
:100AD0009A43344B1A60704710B551B1314A121D18
:100AE000126804090123A3401A432E4B1B1D1A60F0
:100AF00009E02C4A121D126804090123A3409A43FD
:100B0000284B1B1D1A6010BD40B12649091D0968FC
:100B100041F00301234A121D116007E02149091D1C
:100B2000096821F003011F4A121D1160704710B5BA
:100B30003AB11C4B1B6801FA00F42343194C2360A3
:100B400006E0184B1B6801FA00F4A343154C236020
:100B500010BD0022134A00F108031A4411607047C7
:100B60000022104A00F114031A441160704730B596
:100B700000240023082802D142EA012401E042EACD
:100B80000144084B00F120052B441C6030BD014698
:100B90000022044A2C2000EB91000244106880B22D
:100BA0007047000000740040002044490860091D9F
:100BB0000860091D0860091D086041483F4914315B
:100BC0000860704700213D498279002A3AD00A46E0
:100BD000126803689A430B461A600A1D126803687C
:100BE0009A430B1D1A60027911440A6803681A437C
:100BF0000A60324A0832126803689A432F4B08335E
:100C00001A601A1D126803689A432C4B0C331A6041
:100C10004279102A0ED11A1F126803681A43274B13
:100C200008331A601A1D126803681A43234B0C33E9
:100C30001A600DE02149427911440A6803681A4399
:100C40000A6005E0027911440A6803689A430A6061
:100C500070470021016001710C21417100218171F7
:100C600070471649103109680143144A1032116067
:100C7000704701460020114A143212680A4201D01E
:100C8000012000E0002070470C49143108607047D3
:100C9000014600200022094B1B6803EA0102074BB2
:100CA00014331B680B4202D00AB1012000E000207F
:100CB0007047024914310860704700000004014089
:100CC000FFFF0F0001460020FE4A106800F03800C8
:100CD000084310607047FB49096821F00801F94A90
:100CE000116011460968014311607047F5490968B0
:100CF00021F01001F34A11601146096801431160A7
:100D00007047F148EF494860F04848607047EE4846
:100D1000EC494860ED4848607047EA48006940F097
:100D20008000E84908617047E648006940F08000AB
:100D3000E449086170470420E249C96801F00101F3
:100D4000012901D101200EE0DE49C96811F0040F2C
:100D500001D0022007E0DB49C96811F0100F01D073
:100D6000032000E00420704700B502460423FFF78B
:100D7000E2FF034603E0FFF7DEFF0346521E012BAE
:100D800001D1002AF7D102B90523184600BD30B5BC
:100D9000044604254FF43020FFF7E6FF0546042DF6
:100DA00017D1C848006940F00200C64908610846EA
:100DB0004461006940F0400008614FF43020FFF7C3
:100DC000D3FF0546BF48006941F6FD710840BD49A3
:100DD0000861284630BD10B504244FF43020FFF7D9
:100DE000C3FF0446042C16D1B648006940F0040045
:100DF000B44908610846006940F0400008614FF4BA
:100E00003020FFF7B1FF0446AE48006941F6FB71A0
:100E10000840AC490861204610BD00B502460423D5
:100E2000FFF789FF034603E0FFF785FF0346521EE5
:100E3000012B01D1002AF7D102B90523184600BDC4
:100E400010B504244FF43020FFF7E7FF0446042CCC
:100E500016D19C48006940F004009A490861084690
:100E6000006940F0400008614FF43020FFF7D5FFE3
:100E700004469448006941F6FB71084091490861B5
:100E8000204610BD00208F49C96911F0020F01D022
:100E9000012000E00020704730B5A5250424FFF7AD
:100EA000F1FF00B100254FF43020FFF75DFF04464D
:100EB000042C3AD184488349886084488860084675
:100EC000006940F0200008610846006940F04000D9
:100ED00008614FF43020FFF747FF0446042C1BD174
:100EE0007848006941F6DF71084076490861084694
:100EF000006940F01000086175480580E002FFF7C6
:100F000033FF0446052C10D06E48006941F6EF719E
:100F100008406C49086108E0052C06D06948006962
:100F200041F6EF71084067490861204630BDF0B5D1
:100F300004460D4604260027F002FFF715FF06467B
:100F4000042E22D15F48006940F001005D4908612C
:100F50002580F002FFF708FF0646042E0ED1A71CDD
:100F6000280C3880F002FFF7FFFE0646554800695E
:100F700041F6FE7108405349086106E05148006996
:100F800041F6FE7108404F4908613046F0BD70B52A
:100F900004460D460426F002FFF7E6FE0646042E40
:100FA00011D14848006940F0010046490861258098
:100FB000F002FFF7D9FE06464248006941F6FE718D
:100FC000084040490861304670BD70B505460E4680
:100FD0000424E002FFF7C8FE0446042C17D13A4867
:100FE00038498860394888600846006940F0100038
:100FF00008612E80E002FFF7B7FE0446052C06D0FC
:101000003048006941F6EF7108402E4908612046DA
:1010100070BD2DE9F04304464FF6FF763746B046E3
:10102000B1460425E443E6B2C4F30727C4F30748F6
:101030004FEA1469E802FFF797FE0546042D40D1F8
:10104000214820498860214888600846006940F0AE
:1010500010000861FF2E06D01D4808300680E80207
:10106000FFF782FE0546042D08D1FF2F06D0184851
:101070000A300780E802FFF777FE0546042D0AD103
:10108000B8F1FF0F07D012480C30A0F80080E8023A
:10109000FFF76AFE0546042D0AD1B9F1FF0F07D00C
:1010A0000B480E30A0F80090E802FFF75DFE054601
:1010B000052D06D00348006941F6EF71084001494B
:1010C000086107E00020024023016745AB89EFCDAE
:1010D00000F8FF1F2846BDE8F08330B5054604241C
:1010E0004FF43020FFF740FE0446042C41D15F4806
:1010F0005F4988605F4888600846006940F02000CA
:1011000008610846006940F0400008614FF4302053
:10111000FFF72AFE0446042C22D15548006941F607
:10112000DF710840524908610846006940F010002C
:1011300008611DB100205049088002E0A5204E49F9
:1011400008804FF43020FFF70FFE0446052C10D026
:101150004748006941F6EF7108404549086108E0D9
:10116000052C06D04248006941F6DF71084040492D
:101170000861204630BDF0B505460E4617460424EA
:101180003A483B4988603B488860E002FFF7ECFD45
:101190000446042C19D13648006940F01000344947
:1011A000086147F0F800304328433349891C088020
:1011B000E002FFF7D9FD0446052C06D02C48006953
:1011C00041F6EF7108402A4908612046F0BD2848E1
:1011D000C069800870472648006A7047002024498B
:1011E000096811F0200F01D0012000E000207047B5
:1011F00029B11F4A126902431D4B1A6104E01C4ABF
:10120000126982431A4B1A61704701460020012976
:1012100008D1174AD26912F0010F01D0012008E06D
:10122000002006E0124AD2680A4201D0012000E004
:10123000002070470E49C860704704200C49C968F7
:1012400001F00101012901D101200EE00849C9681E
:1012500011F0040F01D0022007E00549C96811F020
:10126000100F01D0032000E00420704723016745E0
:1012700000200240AB89EFCD00F8FF1F30B943F2E8
:10128000DB014FF0204242F8201005E043F2D2018A
:101290004FF0204242F820106FF07042411C4FF096
:1012A000204343F8212011461A4602EB8002C2F87F
:1012B0000411704710280AD118214FF020421166FE
:1012C000402151664FF0FC319166D16610E0182143
:1012D000F84A11604FF040014FF02042C2F88410EC
:1012E0004FF0FC31F44A11604FF02042C2F88C10EC
:1012F00070471820F14908604FF000004FF020417E
:10130000C1F8A4004FF0FC30ED49086001F1040180
:10131000086001F1040108607047D0E9011211432F
:10132000C268114302691143426911438269114342
:10133000C2691143026A1143426A1143826A11432E
:10134000C26A1143026B11434FF02043026843F815
:1013500022108168082908D11A46016852F8211024
:1013600041F04001026843F82210416B0968426B6A
:10137000526841EA0211426B926841EA0221426BD3
:10138000D26841EA0241426B126941EA0251426B62
:10139000526941EA0261426B926911430268521C30
:1013A0004FF0204343F82210C16AB1F5804F1AD1A3
:1013B000816B0968826B526841EA0211826B926804
:1013C00041EA0221826B126941EA0251826B526941
:1013D00041EA0261826B92691143026803EB820267
:1013E000C2F8041108E06FF070414FF0204302682A
:1013F00003EB8202C2F80411704730B500210022CD
:101400000023446844F0080485682C43C5682C43D5
:1014100005692C43456944EA4524856944EA453118
:10142000C4692468C5696D6844EA0524C569AD6866
:1014300044EA0544C569ED6844EA0562046A246823
:10144000056A6D6844EA0524056AAD6844EA054406
:10145000056AED6844EA05630468102C05D14FF075
:1014600020442166A266E36607E0924C21604FF0BB
:101470002044C4F88820934C236030BD016841F0BB
:101480001001426841EA4221826841EA42318B4AB6
:101490001160C1680968C268526841EA0221C268E5
:1014A000926841EA0241C268D26841EA0261844A14
:1014B0001160016909680269526841EA0221026902
:1014C000926841EA02410269D26841EA02617E4AB9
:1014D0001160416909684269526841EA0221426922
:1014E000926841EA02414269D26841EA02614FF0E2
:1014F0002042C2F8B0107047002101600221416013
:1015000000218160C160016141618161C16101624D
:101510004FF480514162490081620021C162016340
:101520000F21426B1160426B5160FF21426B916051
:101530000F21426BD160426B1161426B51610021FE
:10154000426B91610F21826B1160826B5160FF21B0
:10155000826B91600F21826BD160826B1161826B13
:1015600051610021826B916170471021016000215F
:1015700041608160C160016141618161FC21C2699A
:101580001160C2695160C2699160C269D160026A2A
:101590001160026A5160026A9160026AD16070470C
:1015A0000021016041608160FC21C2681160C26855
:1015B0005160C2689160C268D160026911600269BD
:1015C0005160026991600269D160426911604269AB
:1015D0005160426991604269D160704751B14FF0EA
:1015E000204252F8202042F001024FF0204343F8FD
:1015F000202009E04FF0204252F82020334B1A40BF
:101600004FF0204343F82020704799B1102808D1AB
:101610004FF02042126E42F004024FF020431A664F
:101620001DE0244A126842F004024FF02043C3F840
:10163000802014E0102809D14FF02042126E234B75
:10164000DB1E1A404FF020431A6608E0194A126860
:101650001F4B02EA03024FF02043C3F8802070477B
:1016600040B11649096841F004014FF02042C2F828
:10167000A01008E011490968154A01EA02014FF07B
:101680002042C2F8A010704799B1102808D14FF03D
:101690002042126E42F040024FF020431A662DE0C5
:1016A000044A126842F040024FF02043C3F8802001
:1016B00024E00FE0800000A0880000A0A00000A0AF
:1016C000A80000A08C0000A0AC0000A0FEFF0F004E
:1016D000FBFF0F00102808D14FF02042126E684B1C
:1016E0001A404FF020431A6608E0664A1268644BBD
:1016F00002EA03024FF02043C3F8802070470146FE
:101700000020102903D14FF02042506F01E05E4AC3
:101710001068704710B5F2B1102807D14FF0204380
:101720005B6E0B434FF02044636632E0B0F5807F80
:1017300008D1564B1B6843EA01034FF02044C4F81C
:10174000843026E0524B1B6843EA01034FF02044EB
:10175000C4F8A4301DE0102807D14FF020435B6E81
:101760008B434FF02044636613E0B0F5807F08D1CF
:10177000464B1B6823EA01034FF02044C4F8843031
:1017800007E0434B1B6823EA01034FF02044C4F8F1
:10179000A43010BD10B5024600200023102A03D14A
:1017A0004FF02044636E07E0B2F5807F02D1374CE2
:1017B000236801E0364C23680B4201D0012000E091
:1017C000002010BD102807D14FF02042526E8A43EE
:1017D0004FF020435A6613E0B0F5807F08D12B4AC2
:1017E000126822EA01024FF02043C3F8842007E088
:1017F000274A126822EA01024FF02043C3F8A420CE
:10180000704770B502460020002300240025102AEE
:1018100003D14FF02046736E07E0B2F5807F02D10E
:101820001A4E336801E01A4E336803EA010403EAF2
:10183000D10514B10DB1012000E0002070BD1028C9
:1018400008D14FF02042526E22EAD1024FF02043DD
:101850005A6613E0B0F5807F08D10C4A126822EA7C
:10186000D1024FF02043C3F8842007E0084A1268F1
:1018700022EAD1024FF02043C3F8A42070470000B1
:10188000BFFF0F00800000A0940000A0840000A013
:10189000A40000A010B50446CA48844208D1012122
:1018A000042000F08BFB0021042000F087FB46E0C1
:1018B000C548844208D10121082000F07FFB0021A7
:1018C000082000F07BFB3AE0C048844208D10121A7
:1018D000102000F073FB0021102000F06FFB2EE0C1
:1018E000BB48844208D10121202000F067FB002181
:1018F000202000F063FB22E0B648844208D1012199
:10190000402000F05BFB0021402000F057FB16E078
:10191000B148844208D10121802000F04FFB002112
:10192000802000F04BFB0AE0AC48844207D1012143
:10193000801500F043FB0021A01500F03FFB10BD17
:1019400010B50121084600F039FB0021012000F00C
:1019500035FB10BD2DE9F041024600250026002090
:1019600000230024002791F803C00CF00F0591F824
:1019700003C01CF0100F03D091F802C04CEA05051B
:10198000B1F800C01CF0FF0F31D0146800202BE02C
:101990004FF0010C0CFA00F3B1F800C00CEA03069A
:1019A0009E4220D183004FF00F0C0CFA03F7BC438A
:1019B00005FA03FC4CEA040491F803C0BCF1280FBB
:1019C00006D14FF0010C0CFA00FCC2F814C00AE07A
:1019D00091F803C0BCF1480F05D14FF0010C0CFA8F
:1019E00000FCC2F810C0401C0828D1D31460B1F824
:1019F00000C0BCF1FF0F34DD546800202EE000F180
:101A0000080C4FF0010808FA0CF3B1F800C00CEA1A
:101A100003069E4221D183004FF00F0C0CFA03F70E
:101A2000BC4305FA03FC4CEA040491F803C0BCF182
:101A3000280F05D100F1080C08FA0CF8C2F8148040
:101A400091F803C0BCF1480F07D100F1080C4FF02A
:101A5000010808FA0CF8C2F81080401C0828CED300
:101A60005460BDE8F0814FF6FF7101800221817062
:101A70000421C17070470246002093680B4201D0D8
:101A8000012000E0002070470146886880B270475E
:101A900002460020D3680B4201D0012000E0002064
:101AA00070470146C86880B2704701617047416164
:101AB00070470AB1016100E041617047C160704741
:101AC0004FF480320A438261816182618269826956
:101AD000704702460020424B18684FF6807318404A
:101AE00040EA021008433E4B186070473D49C86108
:101AF0007047F0B50A46002300240021002500F0BD
:101B00000046B6F1004F02D1354EF16901E0344E86
:101B10007168C0F3034583B200F44016B6F5401F68
:101B200008D121F070612E4E766826F070662C4F39
:101B30007E6012E000F48016B6F5801F06D1032601
:101B400006FA05F4A14341F0706106E0460D360146
:101B500003FA06F6B14341F0706122B1460D360139
:101B600003FA06F6314300F00046B6F1004F02D109
:101B70001B4EF16101E01A4E7160F0BD30B50022DC
:101B80008B071C0F0F2303FA04F2154B08338C103C
:101B900053F824309343124C08348D1044F8253008
:101BA00023468C1053F824308C07240F00FA04F4D9
:101BB00023430B4C08348D1044F8253030BD0A49BE
:101BC0000860704700080140000C0140001001400F
:101BD0000014014000180140001C01400020014099
:101BE0000000014000002042DC00204210B501212D
:101BF000080700F0F0F900214FF0805000F0EBF9F9
:101C000010BD29490862704727490861704701469D
:101C10000020264A106820F0E0000843106070475A
:101C200023490860704710B5024600201F4B186812
:101C300020F00300104318601E4B1B6843F00403A0
:101C40001C4C2360012901D130BF00E020BF194B9B
:101C50001B6823F00403174C236010BD1348006871
:101C600040F00400114908600846006840F0020096
:101C700008601048006840F004000E49086000BF8A
:101C800000BF30BF704701460020084A52680A4230
:101C900001D0012000E0002070470449096841EAB2
:101CA0008001024A1160704700000E42007000403F
:101CB000A0000E4210ED00E0DC48006840F001009A
:101CC000DA49086008464068D9490840D749486061
:101CD00008460068D7490840D449086008460068AB
:101CE00020F4802008600846406820F4FE00486028
:101CF0004FF41F0088607047CC49096821F4803197
:101D0000CA4A11601146096821F480211160B0F5BA
:101D1000803F03D0B0F5802F0ED106E0C34909689B
:101D200041F48031C14A116007E0C049096841F4BB
:101D3000A021BE4A116000E000BF00BF704710B58F
:101D400001460022002300204A11012A02D1B74C8B
:101D5000236806E0022A02D1B44C236A01E0B34CA6
:101D6000636A01F01F02012494401C4201D001204B
:101D700000E0002010BD70B500240025002600BF43
:101D80003120FFF7DCFF0646641CB4F5A06F01D0DC
:101D9000002EF5D03120FFF7D2FF08B1012500E079
:101DA0000025284670BD01460020A04A106820F09A
:101DB000F80040EAC100106070479F490860704712
:101DC00002460020994B586820F47C1042EA010337
:101DD0001843964B5860704797490866704701460C
:101DE0000020924A506820F003000843506070477A
:101DF0008E48406800F00C007047014600208B4A76
:101E0000506820F0F0000843506070470146002001
:101E1000864A506820F4E0600843506070470146ED
:101E20000020824A506820F4605040EAC1005060AF
:101E3000704729B17D4A527A02437C4B5A7206E0C0
:101E40007A4A527AC343DBB21A40784B5A727047CF
:101E50007A490860704701460020744A506820F4AF
:101E600040400843506070470021754A11706F4A26
:101E700082F82010012802D0042808D103E00121B3
:101E80006F4A117004E005216D4A117000E000BF37
:101E900000BF70476B49086070476449096A014395
:101EA000624A11627047674944390860704730B52B
:101EB00000210022002400235C4D6D6805F00C0118
:101EC00021B1042905D0082923D105E05E4D056024
:101ED00022E05D4D05601FE0544D6D6805F4701201
:101EE000524D6D6805F48034022505EB92421CB911
:101EF000564D554305600BE04C4D6D6815F4003FA1
:101F000003D0524D5543056002E04F4D55430560E7
:101F100002E04D4D056000BF00BF444D6D6805F007
:101F2000F00109094A4D6B5C0568DD4045603F4D95
:101F30006D6805F4E061090A454D6B5C4568DD405C
:101F400085603A4D6D6805F46051C90A404D6B5C7F
:101F50004568DD40C560354D6D6805F44041890B2D
:101F60003C4D6B5CC568B5FBF3F5056130BD29B12F
:101F70002E4A526902432D4B5A6104E02B4A5269A2
:101F800082432A4B5A61704729B1284A9269024319
:101F9000264B9A6104E0254A92698243234B9A6159
:101FA000704729B1214AD2690243204BDA6104E02B
:101FB0001E4AD26982431D4BDA61704729B11B4A20
:101FC000D2680243194BDA6004E0184AD2688243AF
:101FD000164BDA60704729B1144A12690243134B59
:101FE0001A6104E0114A12698243104B1A6170476A
:101FF00014494039086070470F49C86470470B495D
:10200000C87170470948406A40F0807007494862CB
:10201000704701460020054A92680A4201D001201B
:1020200000E00020704701498872704700100240AC
:102030000000FFF8FFFFF6FE00004242D8004242D7
:10204000201002408004424200127A0000093D0044
:10205000140000202400002029B1524A12880243B3
:10206000504B1A8006E04F4A1288C3439BB21A4075
:102070004C4B1A8070474B48001D008840F0100000
:102080004849091D088070474648001D00884FF6E2
:10209000EF7108404349091D0880704700214148FD
:1020A0001C300188001F008841EA0040704700B5DD
:1020B0000246FFF7E0FF100C3A4918310880091D6D
:1020C0000A80FFF7E1FF00BD00B50246FFF7D3FF2E
:1020D000C2F30340334908310880091D0A80FFF725
:1020E000D3FF00BD00B50246FFF7C5FF100C2D4918
:1020F00020310880091D0A80FFF7C6FF00BD0020BF
:102100002849103109880907080B26491431098824
:102110000843704700BF2348001D008810F0200FBF
:10212000F9D070471F48001D00884FF6F77108402E
:102130001C49091D088000BF1A48001D008810F0C6
:10214000080FF9D0704701460020164A121D128868
:102150000A4201D0012000E0002070471149091D0A
:102160000988C24392B211400E4A121D1180704775
:10217000014600200B4A121D12880A40D0B2094ABB
:1021800012880A4202D008B1012000E00020704706
:102190000449091D0988C24392B21140014A121D27
:1021A000118070470028004010B50446FE48844264
:1021B00008D10121C014FFF701FF0021E014FFF74F
:1021C000FDFEC4E0B4F1804F08D101210846FFF7BD
:1021D00002FF00210120FFF7FEFEB8E0F348844231
:1021E00008D101210220FFF7F6FE00210220FFF7AF
:1021F000F2FEACE0EE48844208D101210420FFF752
:10220000EAFE00210420FFF7E6FEA0E0E948844250
:1022100008D101210820FFF7DEFE00210820FFF78A
:10222000DAFE94E0E448844208D101211020FFF74F
:10223000D2FE00211020FFF7CEFE88E0DF48844266
:1022400008D101212020FFF7C6FE00212020FFF742
:10225000C2FE7CE0DA48844208D101214014FFF735
:10226000ADFE00216014FFF7A9FE70E0D54884425E
:1022700009D10121C804FFF7A1FE00214FF400207D
:10228000FFF79CFE63E0D048844209D10121080594
:10229000FFF794FE00214FF48010FFF78FFE56E009
:1022A000CA48844209D101214805FFF787FE002171
:1022B0004FF40010FFF782FE49E0C548844208D180
:1022C00001214020FFF787FE00214020FFF783FE19
:1022D0003DE0C048844208D101218020FFF77BFE09
:1022E00000218020FFF777FE31E0BB48844208D10F
:1022F00001218015FFF76FFE0021A015FFF76BFE8F
:1023000025E0B648844209D101210804FFF756FEB2
:1023100000214FF48030FFF751FE18E0B0488442AE
:1023200009D101214804FFF749FE00214FF4003094
:10233000FFF744FE0BE0AB48844208D1012188043A
:10234000FFF73CFE00214FF48020FFF737FE10BD61
:1023500000220288944B98420ED0994B98420BD0A1
:10236000B0F1804F08D0914B984205D0904B9842E5
:1023700002D0904B984204D14FF68F731A404B888D
:102380001A438D4B984207D08C4B984204D04FF69D
:10239000FF431A40CB881A4302808B8883850B88C1
:1023A0000385814B98420BD0854B984208D08B4BCC
:1023B000984205D08A4B984202D08A4B984201D16C
:1023C0000B7A038601238382704770B500240022B4
:1023D0000023058C4FF6FE7635400584028C8388F9
:1023E000048B4FF68F752C40B51E2C400D882C4366
:1023F000751E2A400D892A434D882A436A4DA842FA
:102400000BD06F4DA84208D0744DA84205D0744D32
:10241000A84202D0734DA84213D14FF6F7752A4057
:102420004D892A434FF6FB752A408D882A434FF683
:10243000FF652B404FF6FF552B408D892B43CD89EF
:102440002B4383800483CD888586028470BD70B55C
:10245000002400220023058C4FF6EF7635400584DA
:10246000028C8388048B48F6FF752C404FF6FF459D
:102470002C400D882D0644EA15444FF6DF752A409E
:102480000D892D0542EA15424D882D0542EA154277
:10249000454DA84202D04A4DA8421BD14FF67F7548
:1024A0002A404D892D0542EA15424FF6BF752A4054
:1024B0008D882D0542EA15424FF6FF352B404FF22D
:1024C000FF752B408D89AD0443EA1543CD89AD04DA
:1024D00043EA154383800483CD880587028470BD59
:1024E00070B5002400220023058C4FF6FF663540AE
:1024F0000584028C8388848B4FF68F752C404FF6B1
:10250000FC752C400D882C434FF6FF552A400D8951
:102510002D0642EA15424D882D0642EA1542224D0B
:10252000A84202D0264DA8421BD14FF2FF752A4087
:102530004D892D0642EA15424FF6FF352A408D8817
:102540002D0642EA15424EF6FF752B404DF6FF75FB
:102550002B408D892D0543EA1543CD892D0543EA8E
:10256000154383808483CD888587028470BD70B5D0
:10257000002200230024058C4EF6FF7635400584AA
:10258000038C8488828B48F6FF752A404FF6FF45FE
:102590002A400D882D0642EA15424DF6FF752B4064
:1025A0000D892D0720E00000002C014000040040B0
:1025B00000080040000C00400010004000140040E3
:1025C00000340140004C01400050014000540140E3
:1025D00000180040001C0040002000400040014066
:1025E000004401400048014043EA15434D882D074F
:1025F00043EA1543F84DA84202D0F84DA84206D14F
:102600004BF6FF752C408D89AD0544EA1544848056
:102610008283CD88A0F84050038470BD828B4FF236
:10262000FF331A408283828B0B0642EA1342828375
:102630007047F0B50C461546002200210026078C95
:102640004EF6FF7C07EA0C070784828B018C270774
:102650003E0C40F6FF473A402F0642EA17421F075A
:1026600042EA1742DC4FB8420ED0DC4FB8420BD0E2
:10267000B0F1804F08D0DA4FB84205D0D94FB842F8
:1026800002D0D94FB84206D14DF6FF77394046F413
:102690008057394305E047F6FF57394044F48057E7
:1026A000394382830184F0BD828B4FF6F3731A4065
:1026B0008283828B0A4382837047F0B50C461546AD
:1026C000002200210026078C4FF6FF6C07EA0C075A
:1026D0000784828B018C27063E0C4FF60C773A401C
:1026E0001F0545EA17473A43BB4FB8420ED0BB4FD0
:1026F000B8420BD0B0F1804F08D0B94FB84205D0E6
:10270000B84FB84202D0B84FB84206D14FF6FF5783
:10271000394046F48077394305E04FF2FF5739409E
:1027200044F48077394382830184F0BD028B4FF2F9
:10273000FF331A400283028B0B0642EA13420283E4
:102740007047F0B50C461546002200210026078C84
:102750004FF6EF7C07EA0C070784028B018C2705F4
:102760003E0C40F6FF473A401F0742EA17422F0649
:1027700042EA1742984FB8420ED0984FB8420BD059
:10278000B0F1804F08D0964FB84205D0954FB8426F
:1027900002D0954FB84206D14FF6DF77394046F068
:1027A0001007394305E04FF65F77394044F01007D2
:1027B000394302830184F0BD028B4FF6F3731A4054
:1027C0000283028B0A4302837047F0B50C4615461C
:1027D00000220021068C4FF6FE773E400684028BD5
:1027E000018C4FF60C7632401E0545EA1646324300
:1027F000794EB0420ED0794EB0420BD0B0F1804F3E
:1028000008D0774EB04205D0764EB04202D0764E18
:10281000B04206D14FF6FD76314044F00106314317
:1028200005E04FF6F576314044F00106314302836E
:102830000184F0BD70B505460C46674885420ED050
:10284000664885420BD0B5F1804F08D06448854278
:1028500005D06448854202D06348854200D100E03B
:1028600000BF208850B92389A28861882846FFF7D5
:10287000ACFFE1882846FFF79FFF25E02088042869
:102880000AD12389A28861882846FFF75AFFE18888
:102890002846FFF74BFF17E0208808280AD1238934
:1028A000A28861882846FFF708FFE1882846FFF7DD
:1028B000FBFE09E02389A28861882846FFF7B9FE5C
:1028C000E1882846FFF7AAFE70BD2DE9F0410546D4
:1028D0000C4600260127608808B9022600E0002681
:1028E000A088012801D1022700E001272088A0B993
:1028F0002389A28861882846FFF767FFE188284678
:10290000FFF75AFF23893A4631462846FFF719FF59
:10291000E1882846FFF70AFF13E02389A28861882F
:102920002846FFF70EFFE1882846FFF7FFFE2389C0
:102930003A4631462846FFF748FFE1882846FFF728
:102940003BFFBDE8F0810A884B881A438B881A4305
:10295000CB881A430B891A434B891A438B891A4334
:10296000A0F8442070474FF6FF718180002101805C
:10297000C1804180017270470021018041808180C7
:10298000C180018141818181C18170470021018025
:102990004180012181800021C18001817047002197
:1029A000018041808180C1800181418181817047A6
:1029B00021B1028842F00102028004E002884FF651
:1029C000FE731A400280704781B1B0F8442042F48F
:1029D0000042A0F844200FE0002C014000340140E8
:1029E0000004004000080040000C0040B0F8442003
:1029F000C2F30E02A0F84420704710B51AB18389C3
:102A00000B43838104E08389CC43A4B223408381B8
:102A100010BD8182704741EA0203A0F84830704738
:102A200010B51AB183890B43838104E08389CC43B9
:102A3000A4B22340838110BD01894FF6F872114082
:102A4000018170470A46002101894FF68F731940B2
:102A500011430181704730B504460D462946204692
:102A6000FFF7F0FF208940F00700208130BD2DE9FD
:102A7000F04104460D4616461F46602D06D13B46E2
:102A8000012231462046FFF75CFE05E03B4601226D
:102A900031462046FFF799FE29462046FFF7D2FF30
:102AA000208940F007002081BDE8F08130B50C4658
:102AB00000210189C9B21D0642EA15452543294373
:102AC000018130BD2DE9F04105460E461746984676
:102AD000002443463A4631462846FFF7E7FF2C8953
:102AE0004FF6F870044044F007044FF68F7004402E
:102AF00044F070042C81BDE8F081F0B504460D4629
:102B000016461F463B46324629462046FFF7CEFF73
:102B1000208940F480402081F0BD01858282704789
:102B20000A46002101884FF68F7319401143018036
:102B30007047F0B50C4615461E46002100220023C2
:102B40000189028B038C4FF6F877394021434FF609
:102B5000FC473A4040F201173A434FF6DD773B40DD
:102B6000370545EA17473B43018102830384F0BDE3
:102B70000A460021018B4FF68F73194011430183E0
:102B800070470A460021018B48F6FF73194013066F
:102B900041EA1341018370470A460021818B4FF6B9
:102BA0008F7319401143818370470A460021818B3E
:102BB00048F6FF731940130641EA134181837047B9
:102BC00021B1028842F08002028004E002884FF6C0
:102BD0007F731A400280704721B1828842F004025C
:102BE000828004E082884FF6FB731A40828070472F
:102BF00021B1828842F00802828004E082884FF688
:102C0000F7731A408280704721B1828842F0010236
:102C1000828004E082884FF6FE731A4082807047FB
:102C20000A460021018B4FF6F773194011430183C7
:102C300070470A460021018B4FF2FF7319401306BB
:102C400041EA1341018370470A460021818B4FF608
:102C5000F77319401143818370470A460021818B25
:102C60004FF2FF731940130641EA13418183704705
:102C70000A460021018B4FF6FB7319401143018373
:102C800070470A460021018B4FF6FF3319401306A7
:102C900041EA1341018370470A460021818B4FF6B8
:102CA000FB7319401143818370470A460021818BD1
:102CB0004FF6FF331940130641EA134181837047F1
:102CC0000A460021018B4FF67F731940114301839F
:102CD00070470A460021018BC1F30E01130641EA39
:102CE0001341018370470A460021818B4FF67F73A1
:102CF00019401143818370470A460021818BC1F33B
:102D00000E01130641EA1341818370470A460021F0
:102D1000018C4FF6FD7319401143018470470A4638
:102D20000021018C4FF6F77319401143018470475D
:102D30000A460021018C4FF6DF731940130541EA62
:102D40001341018470470A460021018C4FF67F73BE
:102D50001940130541EA1341018470470A460021D6
:102D6000018C4FF6FF531940130641EA13410184C9
:102D700070470A460021018C4FF2FF731940130679
:102D800041EA1341018470470A460021018C4DF647
:102D9000FF731940130741EA13410184704730B5AE
:102DA000002301248C40A3B2048CDD43ADB22C403F
:102DB0000484048C02FA01F5ADB22C43048430BDC6
:102DC00030B5002304248C40A3B2048CDD43ADB2A3
:102DD0002C400484048C02FA01F5ADB22C43048427
:102DE00030BD70B503460020002418461830012578
:102DF0008D40ACB21D8CE643B6B235401D8409B19E
:102E0000082909D100EB6100056825F0700505600F
:102E10000568154305600CE00D1FADB200EB6500C1
:102E2000056825F4E04505600568160645EA16457F
:102E3000056070BD21B1028842F00202028004E008
:102E400002884FF6FD731A400280704721B1028854
:102E500042F00402028004E002884FF6FB731A403D
:102E60000280704721B1828842F08002828004E0B3
:102E700082884FF67F731A408280704702884FF62F
:102E8000F7731A40028002880A43028070478288E2
:102E90004FF68F731A40828082880A43828070477F
:102EA00002894FF6F8731A40028102890A430281AF
:102EB000704702894FF67F731A40028102890A43E4
:102EC0000281704781847047818570478186704791
:102ED0000187704781877047A0F8401070470288CB
:102EE0004FF6FF431A40028002880A43028070476F
:102EF0000146888E70470146088F70470146888FCB
:102F000070470146B1F8400070470146888C704711
:102F10000146088D704702460020138A0B4201D0FB
:102F2000012000E000207047CA430282704730B59C
:102F30000246002000230024158A05EA0103958932
:102F400005EA010413B10CB1012000E0002030BDFE
:102F5000CA4302827047000010B50446FC48844210
:102F600009D101218803FFF729F800214FF480409F
:102F7000FFF724F832E0F748844209D101214804E0
:102F8000FFF729F800214FF40030FFF724F825E07F
:102F9000F148844209D101218804FFF71CF800217F
:102FA0004FF48020FFF717F818E0EC48844209D16D
:102FB0000121C804FFF70FF800214FF40020FFF7AC
:102FC0000AF80BE0E648844208D101210805FFF722
:102FD00002F800214FF48010FEF7FDFF10BD2DE92F
:102FE000F04786B005460E460024A24600BFA14623
:102FF0000027B08900B100BF2F462C8A4CF6FF7025
:103000000440F08804432C82AC894EF6F31004404F
:10301000B08831890843718908430443AC81AC8A84
:103020004FF6FF400440B0890443AC8201A8FEF78C
:103030003EFFC748874202D1DDF810A001E0DDF86D
:103040000CA0A88910F4004F08D00AEBCA0000EBCE
:103050000A1031684900B0FBF1F807E00AEBCA003A
:1030600000EB0A1031688900B0FBF1F86420B8FB6E
:10307000F0F004012009642101FB1089A88910F4F3
:10308000004F08D0322000EBC900B0FBF1F000F097
:103090000700044308E0322000EB09106421B0FB74
:1030A000F1F000F00F0004432C8106B0BDE8F0877A
:1030B0004FF41651016000218180C18001810C21F3
:1030C000418100218181704710B502460020108A9D
:1030D0004FF2FF0318400B884C8823438C8823430E
:1030E000CC8823431843108210BD00210180418009
:1030F0008180C180704721B1828942F4005282816F
:1031000004E082894DF6FF731A4082817047F0B562
:1031100003460024002600250020A1F510676A3F21
:1031200000D100BF1846C1F3421401F01F06012769
:1031300007FA06F5012C01D10C3004E0022C01D174
:10314000103000E014301AB107682F43076002E026
:103150000768AF430760F0BD10B51AB1838A0B430F
:10316000838204E0838ACC43A4B22340838210BDCF
:10317000028A4FF6F0731A400282028A0A430282E0
:10318000704782894FF2FF731A40828182890A4315
:103190008281704721B1828942F00202828104E07B
:1031A00082894FF6FD731A4082817047028A4FF67A
:1031B000DF731A400282028A0A430282704721B1F9
:1031C000028A42F48042028204E0028A4BF6FF73D4
:1031D0001A4002827047C1F308028280704701469C
:1031E0008888C0F308007047818941F0010181811E
:1031F0007047028BD2B20283028B42EA0122028321
:103200007047028B02F47F420283028B0A430283DF
:10321000704721B1828A42F02002828204E0828AD1
:103220004FF6DF731A408282704721B1828A42F0E2
:103230001002828204E0828A4FF6EF731A40828283
:10324000704721B1828A42F00802828204E0828AB9
:103250004FF6F7731A408282704721B1828942F497
:103260000042828103E08289C2F30E0282817047AC
:1032700021B1828A42F40062828204E0828A4FF2A3
:10328000FF731A4082827047828A4FF6FB731A409E
:103290008282828A0A438282704721B1828A42F006
:1032A0000202828204E0828A4FF6FD731A40828213
:1032B000704702460020B1F5007F00D100BF13889F
:1032C0000B4201D0012000E00020704701F40072A1
:1032D000B2F5007F00D100BFCA430280704770B5CD
:1032E00002460024002300250020A1F510666A3E56
:1032F00000D100BFC1F3421501F01F03012606FAF9
:1033000003F3012D02D19689334006E0022D02D14C
:10331000168A334001E0968A33400C12012606FAE1
:1033200004F41688344013B10CB1012000E00020F1
:1033300070BD10B500220023A1F510646A3C00D1D5
:1033400000BF0A1201249440A3B2DC43048010BDE4
:10335000003801400044004000480040004C00405C
:103360000050004008B50020009030F041FF34F0DC
:1033700073F90221124835F09EF8124908601421B1
:10338000114835F098F811490860002035F07AFBB3
:103390000F4908606946012034F08CFD0D49086032
:1033A0006946012034F086FD0B49086018230B4A5A
:1033B00000210B4835F030FD34F036FA002008BD0E
:1033C000500000204C000020502E0020580000200B
:1033D0005C0000206000002064000020BC31002060
:1033E0006D79000870471FF037FD14E050480079F0
:1033F000002810DD00204F49096809B9012100E0CB
:1034000000214C4A11604FF0000000E0401C4A4986
:103410008842FBDB00BFE9E700BFFEE700BFFEE735
:1034200000BFFEE770477047704710B534F02EF9C3
:1034300034F031FA34F038F910BD10B534F026F913
:103440002020FDF725FC68B1C82030F044FF3B4840
:10345000006818B929F050FE2DF036FC2020FDF749
:1034600013FC02E00120FDF70FFC34F01DF910BD44
:1034700010B534F00BF94FF40060FDF709FC60B1B2
:10348000002030F028FF2E48006808B929F072FEAD
:103490004FF40060FDF7F8FB27E04FF48060FDF784
:1034A000F7FB68B12748006830F015FF2648006830
:1034B00008B929F044FE4FF48060FDF7E5FB14E005
:1034C0004FF48050FDF7E4FB60B1052030F003FFBE
:1034D0001E48006808B929F05CFE4FF48050FDF7E3
:1034E000D3FB02E00120FDF7CFFB34F0DDF810BD87
:1034F00010B534F0CBF840F225511548FFF7EFFE38
:10350000012807D140F225511148FFF712FF114859
:103510000068804740F227710D48FFF7E0FE012860
:1035200002D10D480068804734F0BEF810BD00009D
:103530002C0000208481214240420F0014012142CE
:103540002C01214244000020280121423001214267
:1035500000440040680000206C000020014600206C
:10356000012902D002290ED106E04FF4FA600223AD
:10357000F84A82F8F03606E04FF4FA600223F54A82
:1035800082F8603900BF00BF704700B5F24890F87C
:103590002400052824D2DFE800F003080D121C00E7
:1035A0004FF4FA70EC49C8841AE04FF47A70EA4993
:1035B000C88415E041F28830E749C88410E005204E
:1035C000E549C87042F20F70C8844FF4FA7008855C
:1035D00006E00620E049C8704FF4FA60C88400BFD6
:1035E00000BFDD4890F83800052824D2DFE800F05D
:1035F00003080D121C004FF4FA70D74948871AE0EF
:103600004FF4FA60D449488715E041F27070D2490E
:10361000488710E00520D049C87042F20F704887F3
:103620004FF4FA70888706E00620CB49C8704FF443
:10363000FA60488700BF00BFC74890F843000628DB
:1036400022D2DFE800F02103090F151B4FF47A7036
:10365000C149A1F8440017E040F2DC50BE49A1F88E
:10366000440011E040F6C410BB49A1F844000BE04F
:1036700041F28830B849A1F8440005E042F20F70E9
:10368000B549A1F8440000BF00BFB348007810F06E
:10369000020F04D00120FFF761FFAF494885AE4813
:1036A000007810F0040F04D00220FFF757FFAA495A
:1036B000C887A948C07938B94FF47A60A6494881CB
:1036C0004FF4C870888104E00920A3494881012093
:1036D000888100BD10B50E209F49087000208871B8
:1036E000487188700420C8700020C87101200872D9
:1036F00081F86B00887341F2883008834FF4FA70C8
:1037000088823F2048749548407988760120C876A1
:10371000C87303200874022081F8240041F2883025
:10372000C8843220088506208883012088771420E9
:1037300008840020C877022081F8380041F27070B8
:1037400048873220888730204884002081F8410053
:10375000012081F843004FF47A70A1F84400322030
:10376000A1F846007E4888644FF07E50C86400206F
:1037700081F85000062081F86100022081F8620083
:103780004FF44860A1F852004FF49670A1F854002D
:1037900041F2EC30A1F856000020A1F858000620B4
:1037A00081F85A00002081F8670081F869009620AE
:1037B000A1F85C004FF44860A1F85E008020C88545
:1037C0004FF4FA704886088641F288308886642073
:1037D000C886FFF7DAFE10BD10B51E205E490870DE
:1037E000082088713F2048740120C876022081F8A3
:1037F00024000620888316200884022081F83800DF
:103800003E204884012081F843003220A1F8460080
:1038100054488864002081F85000062081F8610037
:1038200081F85A00012081F86700002081F86800C3
:1038300081F869000E2081F85B008020C885FFF7C1
:10384000A4FE10BD10B506204349087008208871F9
:10385000022081F824000620888316200884022094
:1038600081F838003E204884012081F843004FF45D
:103870007A70A1F844003220A1F846003A488864E2
:10388000002081F85000062081F85A00012081F8BC
:1038900067008020C885FFF778FE10BD10B50620B0
:1038A0002D49087004208871022081F82400062028
:1038B000888316200884022081F838003E2048843E
:1038C000042081F843004FF47A70A1F844003220BC
:1038D000A1F8460024488864002081F850000620A2
:1038E00081F85A00012081F867008020C885FFF721
:1038F0004CFE10BD10B506201749087004208871D1
:103900000120C871022081F824000620888300204D
:10391000887714200884022081F8380030204884F9
:10392000042081F843004FF47A70A1F8440032205B
:10393000A1F846000C488864002081F85000062059
:1039400081F85A00012081F867008020C885FFF7C0
:103950001CFE10BD400E0020CC2D00202C000020AD
:1039600000401C46804FC347003C1C4610B50E204B
:10397000FE490870042088710120C871022081F876
:1039800024000620888300208877162008840220DF
:1039900081F838003E204884012081F843004FF42C
:1039A0007A70A1F84400F2488864002081F8500041
:1039B000062081F85A00012081F867008020C88520
:1039C000FFF7E3FD10BD10B51E20E8490870002088
:1039D0008871C871022081F824000620888316208F
:1039E0000884022081F838003E204884012081F8B4
:1039F00043004FF47A70A1F844003220A1F8460049
:103A0000DC488864002081F85000012081F85100D2
:103A100041F2EC30A1F856004FF47A60A1F8520060
:103A2000062081F85A00002081F867008020C885B0
:103A3000FFF7ABFD10BD10B50C20CC49087000207D
:103A40008871C871022081F824000620888316201E
:103A50000884032081F838003E204884012081F842
:103A600043004FF47A70A1F844003220A1F84600D8
:103A7000C0488864002081F85000012081F851007E
:103A800041F2EC30A1F856004FF47A60A1F85200F0
:103A9000062081F85A00002081F867008020C88540
:103AA000FFF773FD10BD10B51E20B049087000204F
:103AB00088713F2048740520C8700120C876032013
:103AC00081F824004FF4FA700885062088831620B8
:103AD0000884032081F838004FF4FA7088873E206C
:103AE0004884032081F843004FF4FA70A1F846009F
:103AF000A0488864A048C864002081F8500081F87C
:103B00005100062081F8610081F85A0041F270707E
:103B1000A1F852004FF49670A1F8540040F6B83066
:103B2000A1F85E00012081F86700002081F868009C
:103B300081F869000E2081F85B006920A1F85C0023
:103B40008020C885FFF721FD10BD10B51E208749D4
:103B50000870002088713F2048740520C87001203B
:103B6000C876032081F824004FF4FA7008850620F7
:103B7000888316200884032081F838004FF4FA70F7
:103B800088873E204884042081F843004FF4FA706F
:103B9000A1F84600774888647748C864002081F817
:103BA000500081F85100062081F8610081F85A0028
:103BB00041F27070A1F852004FF49670A1F85400D1
:103BC00040F6B830A1F85E00012081F867000020BF
:103BD00081F8680081F869000E2081F85B00692097
:103BE000A1F85C008020C885FFF7CFFC10BD10B5A0
:103BF0001E205E490870082088710020C8710220CC
:103C000081F824000620888316200884022081F889
:103C100038003E204884012081F843004FF47A7038
:103C2000A1F844003220A1F84600544888640020DE
:103C300081F8500081F8510041F2EC30A1F85600B3
:103C40004FF44860A1F85200062081F85A00002085
:103C500081F867008020C885FFF797FC10BD10B57C
:103C60001E204249087000208871C871022081F826
:103C700024000620888316200884022081F838005A
:103C80003E204884032081F843004FF4FA70A1F8E5
:103C90004600384888643848C864002081F85000DD
:103CA000012081F86700022081F8510041F2EC30D8
:103CB000A1F856004FF47A60A1F85200A1F85E0016
:103CC000062081F85A008020C885FFF75EFC10BDF1
:103CD00010B51E202549087000208871C871022087
:103CE00081F824000620888316200884022081F8A9
:103CF00038003E204884042081F843004FF4FA70D5
:103D0000A1F846001B4888641B48C864002081F85D
:103D10005000012081F86700022081F8510041F233
:103D2000EC30A1F856004FF47A60A1F85200A1F8E7
:103D30005E00062081F85A008020C885FFF725FC28
:103D400010BD10B50220094908700120887040F6A6
:103D5000C4100883002088710120C871022081F8F6
:103D60002400062088839620088409E0CC2D0020BA
:103D700000409C45005043470000A04000401C46C6
:103D8000022081F838003E204884012081F8430059
:103D90004FF47A70A1F844003220A1F84600FE48A2
:103DA0008864002081F85000012081F8670002201B
:103DB00081F8510041F2EC30A1F8560041F27070E8
:103DC000A1F85200062081F85A008020C885FFF72C
:103DD000DCFB10BD10B50620F0490870002088718A
:103DE0000120C871022081F82400062088839620D3
:103DF0000884022081F838003E204884012081F8A0
:103E000043004FF47A70A1F844003220A1F8460034
:103E1000E1488864002081F85000012081F86700A3
:103E2000022081F8510041F2EC30A1F8560041F235
:103E30007070A1F85200062081F85A008020C885D1
:103E4000FFF7A3FB10BD10B50620D4490870002071
:103E50008871C871032081F824004FF4FA70088536
:103E60000620888316200884032081F838004FF448
:103E7000FA7088873E204884012081F843004FF47F
:103E80007A70A1F844003220A1F84600C248886444
:103E9000002081F85000012081F86700022081F89D
:103EA000510041F2EC30A1F8560041F27070A1F8D7
:103EB0005200062081F85A008020C885FFF765FB74
:103EC00010BD10B50620B54908700020887101208A
:103ED000C871032081F824004FF4FA700885062089
:103EE000888336200884032081F838004FF4FA7064
:103EF00088873E204884012081F843004FF47A707F
:103F0000A1F844003220A1F84600A34888640020AC
:103F100081F85000012081F86700022081F85100EB
:103F200041F2EC30A1F8560041F27070A1F8520055
:103F3000062081F85A008020C885FFF726FB10BDB7
:103F400010B50E209549087008208871022081F86C
:103F5000240040F2FE30888316200884022081F875
:103F600038003E2048844FF47A70A1F84400322093
:103F7000A1F8460088488864002081F85000FFF7C7
:103F800004FB10BD10B50E2084490870082088710C
:103F9000022081F8240040F2FE3088831620088435
:103FA000022081F838003E204884012081F8430037
:103FB0004FF47A70A1F844003220A1F84600764808
:103FC0008864002081F85000FFF7DFFA10BD10B5BB
:103FD0002E2072490870082088710020C8710220C4
:103FE00081F824000620888316200884022081F8A6
:103FF00038003E204884012081F843004FF47A7055
:10400000A1F844003220A1F84600634888640020EB
:1040100081F85000012081F86700022081F85100EA
:1040200041F2EC30A1F8560041F27070A1F8520054
:10403000062081F85A008020C885FFF7A6FA10BD37
:1040400010B50E2055490870042088710020C871F1
:10405000022081F82400062088831620088402208C
:1040600081F838003E204884012081F843004FF455
:104070007A70A1F844003220A1F8460046488864CE
:10408000002081F85000012081F86700022081F8AB
:10409000510041F2EC30A1F8560041F27070A1F8E5
:1040A0005200062081F85A008020C885FFF76DFA7B
:1040B00010BD10B50E203949087000208871062007
:1040C000888316200884022081F8240081F83800B3
:1040D0003E204884012081F843004FF47A70A1F813
:1040E00044003220A1F846002B4888644FF4486011
:1040F000A1F85200002081F85000062081F85A00F3
:10410000002081F86700FFF740FA10BD10B50E20BF
:10411000224908700120C870002088710620888319
:1041200016200884002081F824000A200885002039
:1041300081F838003E2048840A208887002081F8D2
:104140004300FFF722FA4FF47A701449A1F84400B3
:104150003220A1F8460010488864002081F8500001
:104160004FF44860A1F85200062081F85A00002060
:1041700081F8670010BD10B50E20084908700020B6
:1041800088710620888316200884022081F8240084
:1041900081F838003E2003E000401C46CC2D002072
:1041A0004884012081F843004FF47A70A1F844005C
:1041B0003220A1F84600F74888644FF44860A1F81F
:1041C0005200002081F85000062081F85A0000209B
:1041D00081F86700FFF7D9F910BD10B50E20EE4940
:1041E0000870002088710620888316200884022029
:1041F00081F8240081F838003E204884022081F8AC
:1042000043003220A1F84600E2488864002081F88B
:1042100050004FF44860A1F85200062081F85A007F
:10422000002081F86700FFF7B0F910BD10B50E202F
:10423000D9490870002088710620888316200884D8
:10424000022081F8240081F838003E2048840120B3
:1042500081F843004FF47A70A1F844003220A1F8AD
:104260004600CE4888644FF44860A1F85200002010
:1042700081F85000062081F85A00002081F867007C
:10428000FFF783F910BD10B50A20C349087000205C
:104290008871C871022081F82400062088831620C6
:1042A0000884022081F838003E204884012081F8EB
:1042B00043004FF47A70A1F844003220A1F8460080
:1042C000B4488864002081F85000012081F867001C
:1042D000022081F8510041F2EC30A1F8560041F281
:1042E0007070A1F85200062081F85A008020C8851D
:1042F000FFF74BF910BD10B51E20A749087000202C
:104300008871C871022081F8240006208883162055
:104310000884022081F838003E204884012081F87A
:1043200043004FF47A70A1F844003220A1F846000F
:1043300098488864002081F8500081F8670081F86F
:10434000510041F2EC30A1F856004FF44860A1F85A
:104350005200062081F85A008020C885FFF715F921
:1043600010BD10B51E208C49087000208871C871DE
:10437000022081F824000620888356200884022029
:1043800081F83800DE204884012081F843004FF492
:104390007A70A1F844003220A1F846007D48886474
:1043A000002081F8500081F8670081F8510041F247
:1043B000EC30A1F856004FF44860A1F852000620F6
:1043C00081F85A008020C885FFF7DFF810BD10B5CE
:1043D000FFF7DBF810BD10B506206F49087000200C
:1043E0008871C871022081F8240006208883162075
:1043F0000884022081F838003E204884012081F89A
:1044000043004FF47A70A1F844003220A1F846002E
:1044100060488864002081F8500081F8670081F8C6
:10442000510041F2EC30A1F856004FF44860A1F879
:104430005200062081F85A008020C885FFF7A5F8B1
:1044400010BD10B546205449087000208871C8710D
:10445000022081F824000620888316200884022088
:1044600081F838003E204884012081F843004FF451
:104470007A70A1F844003220A1F8460045488864CB
:10448000002081F8500081F8670081F8510041F266
:10449000EC30A1F856004FF44860A1F85200062015
:1044A00081F85A008020C885FFF76FF810BD10B55D
:1044B0000420394908700120887000208871C87173
:1044C000C8208882022081F82400062088831620D4
:1044D0000884012081F838003E2048841420888711
:1044E000012081F843004FF47A70A1F84400322093
:1044F000A1F8460027488864002081F8500081F820
:10450000670081F8510041F2EC30A1F856004FF4F9
:104510004860A1F85200062081F85A008020C88522
:10452000FFF733F810BD10B502201B4908700020BA
:104530008871C871022081F8240006208883362003
:104540000884022081F838003E204884012081F848
:1045500043004FF47A70A1F844003220A1F84600DD
:104560000C488864002081F8500081F8670081F8C9
:10457000510041F2EC30A1F856004FF44860A1F828
:104580005200062081F85A008020C885FEF7FDFF02
:1045900010BD000000401C46CC2D00200050C34739
:1045A00010B50620FE49087000208871C8710220ED
:1045B00081F824000620888336200884022081F8B0
:1045C00038005E204884012081F843004FF47A705F
:1045D000A1F844003220A1F84600F2488864002087
:1045E00081F8500081F8670081F8510041F2EC3009
:1045F000A1F856004FF44860A1F85200062081F857
:104600005A008020C885FEF7C0FF10BD10B5FEF728
:10461000BCFF10BD10B51020E14908700020887162
:10462000C871022081F8240006208883362008847F
:10463000022081F838005E204884012081F8430080
:104640004FF47A70A1F844003220A1F84600D54812
:104650008864002081F8500081F86700012081F80B
:10466000510041F2EC30A1F856004FF47A60A1F805
:104670005200062081F85A008020C885FEF785FF89
:1046800010BD10B51020C649087000208871C8718F
:10469000022081F824000620888336200884022026
:1046A00081F838005E204884012081F843004FF4EF
:1046B0007A70A1F844003220A1F84600B948886415
:1046C000002081F8500081F86700032081F8510034
:1046D00041F2EC30A1F8560041F63800A1F8520042
:1046E000062081F85A008020C885FEF74EFF10BDD5
:1046F00010B51020AA49087000208871C8710220E6
:1047000081F824000620888336200884022081F85E
:1047100038005E204884012081F843004FF47A700D
:10472000A1F844003220A1F846009E488864002089
:1047300081F85000012081F86700032081F85100C2
:1047400041F2EC30A1F856004FF47A50A1F8520033
:10475000062081F85A004FF4FA60A1F85E00782034
:10476000A1F85C008020C885FEF70FFF10BD10B5D2
:104770000E208B49087000208871C871022081F8D2
:1047800024000620888336200884022081F838001F
:104790005E204884012081F843004FF47A70A1F82C
:1047A00044003220A1F846007E488864002081F849
:1047B000500081F86700032081F8510041F2EC308D
:1047C000A1F8560041F63800A1F85200062081F801
:1047D0005A008020C885FEF7D8FE10BD10B50E2007
:1047E0006F4908700020887106208883562008844D
:1047F000022081F8240081F83800DE20488401205E
:1048000081F843004FF47A70A1F844003220A1F8F7
:10481000460064488864002081F850004FF44860E6
:10482000A1F85200062081F85A00002081F86700A4
:10483000FEF7ABFE10BD10B50E20594908700020E0
:10484000887106208883022081F82400562008847D
:10485000022081F83800DE204884012081F84300DE
:104860004FF47A70A1F844003220A1F846004D4878
:104870008864002081F850004FF44860A1F852008D
:10488000062081F85A00002081F86700FEF77DFEBF
:1048900010BD10B502204249087000208871022026
:1048A00081F824000620888356200884022081F89D
:1048B0003800DE204884FEF768FE10BD10B50220E7
:1048C0003749087000208871022081F824000620F2
:1048D0008883562008840120C877022081F8380098
:1048E000DE204884FEF751FE10BD10B502202C4991
:1048F000087000208871887781F82400062088835A
:1049000056200884FEF741FE4FF4FA702449C8840B
:104910000A20088510BD10B5062021490870002026
:104920008871022081F8240006208883562008849C
:10493000022081F83800DE204884FEF726FE10BDF4
:1049400010B504201649087000208871022081F8F3
:1049500024000620888356200884022081F838002D
:10496000DE204884012081F8410081F84200FEF7F2
:104970000CFE10BD10B50620094908700020887192
:10498000022081F824000620888356200884022013
:1049900081F83800DE204884012081F8410003E0DE
:1049A000CC2D002000401C4681F84200FEF7EDFDB2
:1049B00010BD10B50E20F74908700820887100203E
:1049C000C871022081F824000620888316200884FC
:1049D000022081F838003E204884012081F84300FD
:1049E0004FF47A70A1F844003220A1F84600EA485A
:1049F0008864002081F8500081F86700032081F866
:104A0000510041F2EC30A1F8560041F63800A1F80F
:104A10005200062081F85A008020C885FEF7B5FDB7
:104A200010BD10B50E20DB490870082088710020E9
:104A3000C871022081F8240006208883562008844B
:104A4000022081F83800DE204884012081F84300EC
:104A50004FF47A70A1F844003220A1F84600CE4805
:104A60008864002081F8500081F86700032081F8F5
:104A7000510041F2EC30A1F8560041F63800A1F89F
:104A80005200062081F85A008020C885FEF77DFD7F
:104A900010BD10B51620BF49087000208871C8717C
:104AA000022081F824000620888316200884022032
:104AB00081F838003E204884012081F843004FF4FB
:104AC0007A70A1F844003220A1F84600B248886408
:104AD000002081F8500081F8670081F8510041F210
:104AE000EC30A1F856004FF44860A1F852000620BF
:104AF00081F85A008020C885FEF747FD10BD10B52B
:104B00000620A449087000208871C871022081F82D
:104B100024000620888316200884022081F83800AB
:104B20003E204884012081F843004FF47A70A1F8B8
:104B300044003220A1F8460097488864002081F89C
:104B4000500081F8670081F8510041F2EC30A1F883
:104B500056004FF44860A1F85200062081F85A0030
:104B60008020C885FEF711FD10BD10B506208949CB
:104B7000087000208871C871022081F82400062086
:104B8000888356200884022081F83800DE2048847B
:104B9000012081F843004FF47A70A1F844003220DC
:104BA000A1F846007C488864002081F8500081F814
:104BB000670081F8510041F2EC30A1F856004FF443
:104BC0004860A1F85200062081F85A008020C8856C
:104BD000FEF7DBFC10BD10B5FEF7D7FC10BD10B51D
:104BE0000E206C49087088710020C871022081F87D
:104BF00024000620888316200884022081F83800CB
:104C00003E204884012081F843004FF47A70A1F8D7
:104C100044003220A1F846005F488864002081F8F3
:104C2000500081F8670081F8510041F2EC30A1F8A2
:104C300056004FF44860A1F85200062081F85A004F
:104C40008020C885FEF7A1FC10BD10B52E2051496B
:104C500008700E2088710020C871022081F824009D
:104C60000620888316200884022081F838003E2020
:104C70004884012081F843004FF47A70A1F8440081
:104C80003220A1F8460044488864002081F8500092
:104C900081F8670081F8510041F2EC30A1F856002C
:104CA0004FF44860A1F85200062081F85A00802095
:104CB000C885FEF76AFC10BD10B50620354908709E
:104CC000082088710020C871022081F82400062085
:104CD000888316200884022081F838003E2048840A
:104CE000012081F843004FF47A70A1F8440032208B
:104CF000A1F8460028488864002081F8500081F817
:104D0000670081F8510041F2EC30A1F856004FF4F1
:104D10004860A1F85200062081F85A008020C8851A
:104D2000FEF733FC10BD10B50E201A4908700020A4
:104D30008871C871022081F824000620888316201B
:104D40000884022081F838003E204884012081F840
:104D500043004FF47A70A1F844003220A1F84600D5
:104D60000D488864002081F8500081F8670081F8C0
:104D7000510041F2EC30A1F856004FF44860A1F820
:104D80005200062081F85A008020C885FEF7FDFBFE
:104D900010BD0000CC2D00200050434710B50E2060
:104DA000F849087000208871C871022081F8240039
:104DB0000620888356200884022081F83800DE20EF
:104DC0004884012081F843004FF47A70A1F8440030
:104DD0003220A1F84600EC488864002081F8500099
:104DE00081F8670081F8510041F2EC30A1F85600DB
:104DF0004FF44860A1F85200062081F85A00802044
:104E0000C885FEF7C2FB10BD10B50E20DD49087045
:104E100000208871C871022081F824000620888350
:104E200036200884022081F838003E204884032080
:104E300081F8430040F6C410A1F844004FF4FA7022
:104E4000A1F84600D148C864CF488864002081F8A2
:104E5000500081F8670081F8510041F2EC30A1F870
:104E600056004FF44860A1F85200062081F85A001D
:104E70008020C885FEF789FB10BD10B50820C14908
:104E8000087000208871C871022081F82400062073
:104E9000888316200884022081F838003E20488448
:104EA000032081F8430040F6C410A1F844004FF4F9
:104EB000FA70A1F84600B548C864B3488864002079
:104EC00081F8500081F8670081F8510041F2EC3020
:104ED000A1F856004FF44860A1F85200062081F86E
:104EE0005A008020C885FEF750FB10BD10B5082081
:104EF000A449087000208871C871022081F824003C
:104F00000620888316200884022081F838003E207D
:104F10004884042081F843004FF4FA70A1F8460059
:104F20009A48C86498488864002081F8500081F845
:104F3000670081F8510041F2EC30A1F856004FF4BF
:104F40004860A1F85200062081F85A008020C885E8
:104F5000FEF71BFB10BD10B542208A4908700020E7
:104F60008871C87164208886C886002081F8240072
:104F70000620888316200884022081F838003E200D
:104F80004884032081F8430040F6C410A1F844008F
:104F90004FF4FA70A1F846007C48C8647A488864E7
:104FA000002081F8500081F8670081F8510041F23B
:104FB000EC30A1F856004FF44860A1F852000620EA
:104FC00081F85A008020C885FEF7DFFA10BD10B5C1
:104FD0001E206C49087000208871C871022081F879
:104FE00024000620888316200884022081F83800D7
:104FF0003E204884012081F843004FF47A70A1F8E4
:1050000044003220A1F846005F488864002081F8FF
:10501000500081F8670081F8510041F2EC30A1F8AE
:1050200056004FF44860A1F8520001200872062093
:1050300081F85A008020C885FEF7A7FA10BD10B588
:1050400010205049087000208871C871022081F832
:1050500024000620888316200884022081F8380066
:105060003E204884012081F843004FF47A70A1F873
:1050700044003220A1F8460043488864002081F8AB
:10508000500081F8670081F8510041F2EC30A1F83E
:1050900056004FF44860A1F85200062081F85A00EB
:1050A0008020C885FEF771FA10BD10B51020354973
:1050B000087000208871C871022081F82400062041
:1050C000888316200884022081F838003E20488416
:1050D000012081F843004FF47A70A1F84400322097
:1050E000A1F8460028488864002081F8500081F823
:1050F000670081F8510041F2EC30A1F856004FF4FE
:105100007A60A1F85200062081F85A008020C885F4
:10511000FEF73BFA10BD10B506201A4908700020B2
:105120008871C871022081F82400062088835620E7
:105130000884022081F83800DE204884012081F8AC
:1051400043004FF47A70A1F844003220A1F84600E1
:105150000D488864002081F8500081F8670081F8CC
:10516000510041F2EC30A1F856004FF44860A1F82C
:105170005200062081F85A008020C885FEF705FA03
:1051800010BD0000CC2D0020005043470000A0407F
:1051900010B50620FE490870082088710620888313
:1051A000002088771420088430204884022081F869
:1051B000240081F83800062081F85A00012081F887
:1051C0006700002081F85000FEF7DFF910BD10B530
:1051D0000620EF490870042088710620888300208B
:1051E00088771420088430204884022081F8240025
:1051F00081F83800062081F85A00012081F8670004
:10520000002081F85000FEF7C0F910BD10B50E2047
:10521000DF49087008208871022081F824000620E8
:10522000888314200884022081F8380030204884C4
:10523000012081F843004FF47A70A1F84400FA206D
:10524000A1F84600D3488864002081F850004FF44C
:105250004860A1F85200062081F85A00002081F829
:1052600067000120C873FEF790F910BD10B50E203D
:10527000C749087004208871022081F824000620A4
:10528000888314200884022081F838003020488464
:105290004FF47A70A1F84400FA20A1F84600BD4806
:1052A0008864002081F850004FF44860A1F8520053
:1052B000062081F85A00002081F86700FEF765F9A2
:1052C00010BD10B50E20B249087000208871022070
:1052D00081F824000620888396200884022081F823
:1052E00038003E2048844FF47A70A1F84400322000
:1052F000A1F84600A8488864002081F850004FF4C7
:105300004860A1F85200062081F85A00002081F878
:105310006700FEF73AF910BD10B502209C490870ED
:1053200000208871032081F8240040F2FE30888339
:105330000E2008844FF4FA700885FEF726F910BD98
:1053400010B502209249087000208871032081F86E
:10535000240040F2FE308883162008844FF4FA704F
:105360000885FEF712F910BD10B5042088490870B1
:1053700000208871032081F838003E2048844FF4D3
:10538000FA708887FEF701F910BD10B50220804938
:10539000087000208871032081F8240040F2FE305C
:1053A0008883362008844FF4FA700885FEF7EDF8FC
:1053B00010BD10B5062076490870082088710120BC
:1053C000C8714871032081F82400062088833620A4
:1053D00008844FF4FA700885032081F838003E20D5
:1053E00048844FF4FA708887FEF7CFF810BD10B5E7
:1053F000062067490870082088710120C87148712B
:10540000032081F8240006208883362008844FF486
:10541000FA700885032081F838003E2048844FF454
:10542000FA708887FEF7B1F810BD10B5042058490E
:1054300008700020887181F86B00032081F8240037
:1054400040F2FE308883362008844FF4FA700885D5
:10545000032081F838005E2048844FF4FA70888772
:10546000012081F84100FEF790F810BD10B5022030
:105470004749087000208871C871042081F8240011
:10548000062088830E200884022081F838003E2000
:105490004884012081F843004FF47A70A1F8440059
:1054A0003220A1F846003D488864002081F8500071
:1054B00081F8670081F8510041F2EC30A1F8560004
:1054C0004FF44860A1F85200062081F85A0080206D
:1054D000C885FEF75AF810BD10B504202C49087095
:1054E00000208871C871042081F824000620888378
:1054F0000E200884042081F838003E2048840120D2
:1055000081F843004FF47A70A1F844003220A1F8EA
:10551000460022488864002081F8500081F8670026
:1055200081F8510041F2EC30A1F856004FF4486088
:10553000A1F85200062081F85A008020C885FEF7A5
:1055400024F810BD10B50E20114908700020887194
:10555000C871032081F824004FF4FA7008850620F2
:10556000888316200884032081F838004FF4FA70ED
:1055700088873E204884012081F843004FF47A70E8
:10558000A1F844003220A1F846000448886407E0EE
:10559000CC2D002000409C4500401C460050434755
:1055A000002081F8500081F8670081F8510041F235
:1055B000EC30A1F856004FF44860A1F852000620E4
:1055C00081F85A008020C885FDF7DFFF10BD10B5B7
:1055D0000E20FB49087000208871C8710520C87032
:1055E000032081F824004FF4FA7008850620888390
:1055F00016200884032081F838003E2048840320C8
:1056000081F84300FDF7C1FF4FF4FA70EC49A1F8AF
:105610004600EC48C864EC488864002081F85000DB
:1056200081F8670081F8510041F2EC30A1F8560092
:105630004FF44860A1F85200062081F85A008020FB
:10564000C88510BD10B50E20DD4908700020887196
:10565000C8710520C870032081F8240006208883C3
:1056600016200884032081F838003E204884042056
:1056700081F843004FF4FA70A1F84600D148C8649D
:10568000D1488864002081F8500081F8670081F8D3
:10569000510041F2EC30A1F856004FF44860A1F8F7
:1056A0005200062081F85A008020C885FDF76DFF62
:1056B00010BD10B50E20C249087000208871C87155
:1056C0000520C870032081F8240006208883162056
:1056D0000884032081F838003E204884052081F8A2
:1056E000430042F20F70A1F8440041F28830A1F863
:1056F0004600B648C864B4488864002081F8500069
:1057000081F8670081F8510041F2EC30A1F85600B1
:105710004FF44860A1F85200062081F85A0080201A
:10572000C885FDF732FF10BD10B50E20A4490870E2
:1057300000208871C871032081F824000620888326
:1057400016200884032081F838003E204884012078
:1057500081F843004FF47A70A1F844003220A1F898
:10576000460099488864002081F8500081F867005D
:1057700081F8510041F2EC30A1F856004FF4486036
:10578000A1F85200062081F85A008020C885FDF754
:10579000FCFE10BD10B5FDF7F8FE10BD10B51E20C3
:1057A0008749087000208871022081F824000620B3
:1057B000888316200884022081F838003E2048841F
:1057C0004FF47A70A1F84400002081F850000220C4
:1057D00081F862004FF47A60A1F852004FF496709D
:1057E000A1F8540041F2EC30A1F856004FF47A6071
:1057F000A1F85E00062081F85A00012081F86700B8
:10580000002081F86800FDF7C0FE10BD10B51E2015
:105810006B49087000208871022081F8240006205E
:10582000888316200884022081F838003E204884AE
:10583000022081F843003220A1F8460062488864C3
:10584000002081F85000022081F862004FF47A6055
:10585000A1F852004FF49670A1F8540041F2EC30D8
:10586000A1F856004FF47A60A1F85E00062081F896
:105870005A00012081F86700002081F86800FDF7D8
:1058800084FE10BD10B51E204D490870002088719F
:10589000022081F824000620888316200884022034
:1058A00081F838003E204884032081F843004FF4FB
:1058B000FA70A1F84600444888644248C864002051
:1058C00081F85000022081F862004FF47A60A1F85C
:1058D00052004FF49670A1F8540041F2EC30A1F858
:1058E00056004FF47A60A1F85E00062081F85A0055
:1058F000012081F86700002081F86800FDF745FE6F
:1059000010BD10B51E202E4908700020887102209D
:1059100081F824000620888316200884022081F85C
:1059200038003E204884042081F843004FF4FA7088
:10593000A1F84600244888642248C864002081F801
:105940005000022081F862004FF47A60A1F8520002
:105950004FF49670A1F8540041F2EC30A1F85600D3
:105960004FF47A60A1F85E00062081F85A00012009
:1059700081F86700002081F86800FDF706FE10BD81
:1059800010B50E200E49087004208871022081F89D
:1059900024000620888314200884022081F838001F
:1059A00030204884042081F8430041F28830A1F877
:1059B000440040F6B830A1F85200FDF7E6FD10BDF6
:1059C000CC2D00200000A040005043470000FA43C7
:1059D00010B5FDF7DAFD10BD10B50420FE490870C2
:1059E00000208871C871032081F824000620888374
:1059F00016200884022081F83800DE20488441F215
:105A000070700883012081F843004FF47A70A1F888
:105A100044003220A1F84600F0488864002081F854
:105A2000500081F8670081F8510041F2EC30A1F894
:105A300056004FF44860A1F85200062081F85A0041
:105A40008020C885FDF7A1FD10BD10B51020E249EA
:105A500008704FF47A60A1F852006420A1F8540055
:105A600041F2EC30A1F856000020A1F8580081F86E
:105A70006100052081F86100062081F85A000120AC
:105A800081F8670081F868000E2081F85B00FDF75F
:105A90007CFD10BD10B50E20CF490870082088711C
:105AA0000120C8710620888300208877142008848C
:105AB00030204884022081F8240081F838004FF417
:105AC0007A70A1F84400FA20A1F84600C44888641E
:105AD0004FF44860A1F85200062081F85A000020D7
